{
  "contractName": "AssetManager",
  "abi": [
    {
      "inputs": [],
      "payable": false,
      "stateMutability": "nonpayable",
      "type": "constructor"
    },
    {
      "anonymous": false,
      "inputs": [
        {
          "indexed": false,
          "internalType": "string",
          "name": "asset",
          "type": "string"
        },
        {
          "indexed": false,
          "internalType": "uint256",
          "name": "assetNumber",
          "type": "uint256"
        }
      ],
      "name": "AssetCreated",
      "type": "event"
    },
    {
      "anonymous": false,
      "inputs": [
        {
          "indexed": true,
          "internalType": "address",
          "name": "previousOwner",
          "type": "address"
        },
        {
          "indexed": true,
          "internalType": "address",
          "name": "newOwner",
          "type": "address"
        }
      ],
      "name": "OwnershipTransferred",
      "type": "event"
    },
    {
      "constant": true,
      "inputs": [],
      "name": "assetCount",
      "outputs": [
        {
          "internalType": "uint256",
          "name": "",
          "type": "uint256"
        }
      ],
      "payable": false,
      "stateMutability": "view",
      "type": "function"
    },
    {
      "constant": true,
      "inputs": [
        {
          "internalType": "uint256",
          "name": "",
          "type": "uint256"
        }
      ],
      "name": "assets",
      "outputs": [
        {
          "internalType": "string",
          "name": "code",
          "type": "string"
        },
        {
          "internalType": "string",
          "name": "assetName",
          "type": "string"
        }
      ],
      "payable": false,
      "stateMutability": "view",
      "type": "function"
    },
    {
      "constant": true,
      "inputs": [
        {
          "internalType": "string",
          "name": "",
          "type": "string"
        }
      ],
      "name": "getNameFromCode",
      "outputs": [
        {
          "internalType": "string",
          "name": "",
          "type": "string"
        }
      ],
      "payable": false,
      "stateMutability": "view",
      "type": "function"
    },
    {
      "constant": true,
      "inputs": [],
      "name": "owner",
      "outputs": [
        {
          "internalType": "address",
          "name": "",
          "type": "address"
        }
      ],
      "payable": false,
      "stateMutability": "view",
      "type": "function"
    },
    {
      "constant": true,
      "inputs": [],
      "name": "theCode",
      "outputs": [
        {
          "internalType": "string",
          "name": "",
          "type": "string"
        }
      ],
      "payable": false,
      "stateMutability": "view",
      "type": "function"
    },
    {
      "constant": true,
      "inputs": [],
      "name": "theName",
      "outputs": [
        {
          "internalType": "string",
          "name": "",
          "type": "string"
        }
      ],
      "payable": false,
      "stateMutability": "view",
      "type": "function"
    },
    {
      "constant": false,
      "inputs": [
        {
          "internalType": "address",
          "name": "newOwner",
          "type": "address"
        }
      ],
      "name": "transferOwnership",
      "outputs": [],
      "payable": false,
      "stateMutability": "nonpayable",
      "type": "function"
    },
    {
      "constant": false,
      "inputs": [
        {
          "internalType": "string",
          "name": "_code",
          "type": "string"
        },
        {
          "internalType": "string",
          "name": "_assetName",
          "type": "string"
        }
      ],
      "name": "createAsset",
      "outputs": [],
      "payable": false,
      "stateMutability": "nonpayable",
      "type": "function"
    },
    {
      "constant": true,
      "inputs": [
        {
          "internalType": "string",
          "name": "source",
          "type": "string"
        }
      ],
      "name": "stringToBytes32",
      "outputs": [
        {
          "internalType": "bytes32",
          "name": "result",
          "type": "bytes32"
        }
      ],
      "payable": false,
      "stateMutability": "pure",
      "type": "function"
    },
    {
      "constant": true,
      "inputs": [
        {
          "internalType": "bytes32",
          "name": "_bytes32",
          "type": "bytes32"
        }
      ],
      "name": "bytes32ToStr",
      "outputs": [
        {
          "internalType": "string",
          "name": "",
          "type": "string"
        }
      ],
      "payable": false,
      "stateMutability": "pure",
      "type": "function"
    },
    {
      "constant": false,
      "inputs": [],
      "name": "addTestData",
      "outputs": [],
      "payable": false,
      "stateMutability": "nonpayable",
      "type": "function"
    }
  ],
  "bytecode": "0x60806040523480156200001157600080fd5b50336000806101000a81548173ffffffffffffffffffffffffffffffffffffffff021916908373ffffffffffffffffffffffffffffffffffffffff1602179055506040518060400160405280600981526020017f76696e695f636f64650000000000000000000000000000000000000000000000815250600290805190602001906200009f929190620002a0565b506040518060400160405280600481526020017f76696e690000000000000000000000000000000000000000000000000000000081525060039080519060200190620000ed929190620002a0565b50604051806040016040528060028054600181600116156101000203166002900480601f016020809104026020016040519081016040528092919081815260200182805460018160011615610100020316600290048015620001935780601f10620001675761010080835404028352916020019162000193565b820191906000526020600020905b8154815290600101906020018083116200017557829003601f168201915b5050505050815260200160038054600181600116156101000203166002900480601f016020809104026020016040519081016040528092919081815260200182805460018160011615610100020316600290048015620002375780601f106200020b5761010080835404028352916020019162000237565b820191906000526020600020905b8154815290600101906020018083116200021957829003601f168201915b50505050508152506004600080815260200190815260200160002060008201518160000190805190602001906200027092919062000327565b5060208201518160010190805190602001906200028f92919062000327565b5090505060018081905550620003d6565b828054600181600116156101000203166002900490600052602060002090601f016020900481019282601f10620002e357805160ff191683800117855562000314565b8280016001018555821562000314579182015b8281111562000313578251825591602001919060010190620002f6565b5b509050620003239190620003ae565b5090565b828054600181600116156101000203166002900490600052602060002090601f016020900481019282601f106200036a57805160ff19168380011785556200039b565b828001600101855582156200039b579182015b828111156200039a5782518255916020019190600101906200037d565b5b509050620003aa9190620003ae565b5090565b620003d391905b80821115620003cf576000816000905550600101620003b5565b5090565b90565b610fe980620003e66000396000f3fe608060405234801561001057600080fd5b50600436106100a95760003560e01c8063cf35bdd011610071578063cf35bdd01461040b578063cfb519281461051e578063eafe7a74146105ed578063ec23c1b11461060b578063ef0b23681461068e578063f2fde38b14610735576100a9565b8063021398bd146100ae57806354a32d17146101315780638da5cb5b14610265578063a212b454146102af578063a2a55b68146102b9575b600080fd5b6100b6610779565b6040518080602001828103825283818151815260200191508051906020019080838360005b838110156100f65780820151818401526020810190506100db565b50505050905090810190601f1680156101235780820380516001836020036101000a031916815260200191505b509250505060405180910390f35b6101ea6004803603602081101561014757600080fd5b810190808035906020019064010000000081111561016457600080fd5b82018360208201111561017657600080fd5b8035906020019184600183028401116401000000008311171561019857600080fd5b91908080601f016020809104026020016040519081016040528093929190818152602001838380828437600081840152601f19601f820116905080830192505050505050509192919290505050610817565b6040518080602001828103825283818151815260200191508051906020019080838360005b8381101561022a57808201518184015260208101905061020f565b50505050905090810190601f1680156102575780820380516001836020036101000a031916815260200191505b509250505060405180910390f35b61026d6108dd565b604051808273ffffffffffffffffffffffffffffffffffffffff1673ffffffffffffffffffffffffffffffffffffffff16815260200191505060405180910390f35b6102b7610902565b005b610409600480360360408110156102cf57600080fd5b81019080803590602001906401000000008111156102ec57600080fd5b8201836020820111156102fe57600080fd5b8035906020019184600183028401116401000000008311171561032057600080fd5b91908080601f016020809104026020016040519081016040528093929190818152602001838380828437600081840152601f19601f8201169050808301925050505050505091929192908035906020019064010000000081111561038357600080fd5b82018360208201111561039557600080fd5b803590602001918460018302840111640100000000831117156103b757600080fd5b91908080601f016020809104026020016040519081016040528093929190818152602001838380828437600081840152601f19601f8201169050808301925050505050505091929192905050506109ec565b005b6104376004803603602081101561042157600080fd5b8101908080359060200190929190505050610b66565b604051808060200180602001838103835285818151815260200191508051906020019080838360005b8381101561047b578082015181840152602081019050610460565b50505050905090810190601f1680156104a85780820380516001836020036101000a031916815260200191505b50838103825284818151815260200191508051906020019080838360005b838110156104e15780820151818401526020810190506104c6565b50505050905090810190601f16801561050e5780820380516001836020036101000a031916815260200191505b5094505050505060405180910390f35b6105d76004803603602081101561053457600080fd5b810190808035906020019064010000000081111561055157600080fd5b82018360208201111561056357600080fd5b8035906020019184600183028401116401000000008311171561058557600080fd5b91908080601f016020809104026020016040519081016040528093929190818152602001838380828437600081840152601f19601f820116905080830192505050505050509192919290505050610cba565b6040518082815260200191505060405180910390f35b6105f5610ce5565b6040518082815260200191505060405180910390f35b610613610ceb565b6040518080602001828103825283818151815260200191508051906020019080838360005b83811015610653578082015181840152602081019050610638565b50505050905090810190601f1680156106805780820380516001836020036101000a031916815260200191505b509250505060405180910390f35b6106ba600480360360208110156106a457600080fd5b8101908080359060200190929190505050610d89565b6040518080602001828103825283818151815260200191508051906020019080838360005b838110156106fa5780820151818401526020810190506106df565b50505050905090810190601f1680156107275780820380516001836020036101000a031916815260200191505b509250505060405180910390f35b6107776004803603602081101561074b57600080fd5b81019080803573ffffffffffffffffffffffffffffffffffffffff169060200190929190505050610dbe565b005b60028054600181600116156101000203166002900480601f01602080910402602001604051908101604052809291908181526020018280546001816001161561010002031660029004801561080f5780601f106107e45761010080835404028352916020019161080f565b820191906000526020600020905b8154815290600101906020018083116107f257829003601f168201915b505050505081565b6005818051602081018201805184825260208301602085012081835280955050505050506000915090508054600181600116156101000203166002900480601f0160208091040260200160405190810160405280929190818152602001828054600181600116156101000203166002900480156108d55780601f106108aa576101008083540402835291602001916108d5565b820191906000526020600020905b8154815290600101906020018083116108b857829003601f168201915b505050505081565b6000809054906101000a900473ffffffffffffffffffffffffffffffffffffffff1681565b6109766040518060400160405280600981526020017f6d616e755f636f646500000000000000000000000000000000000000000000008152506040518060400160405280600481526020017f6d616e75000000000000000000000000000000000000000000000000000000008152506109ec565b6109ea6040518060400160405280600981526020017f62696c695f636f646500000000000000000000000000000000000000000000008152506040518060400160405280600481526020017f62696c69000000000000000000000000000000000000000000000000000000008152506109ec565b565b6000809054906101000a900473ffffffffffffffffffffffffffffffffffffffff1673ffffffffffffffffffffffffffffffffffffffff163373ffffffffffffffffffffffffffffffffffffffff1614610a4557600080fd5b60405180604001604052808381526020018281525060046000600160008154809291906001019190505581526020019081526020016000206000820151816000019080519060200190610a99929190610f0f565b506020820151816001019080519060200190610ab6929190610f0f565b509050507f2a1f7f425b4ca5fe247c52f3b89fcf14eb5f93bd0817000d8f993db905deaedc8160018054036040518080602001838152602001828103825284818151815260200191508051906020019080838360005b83811015610b27578082015181840152602081019050610b0c565b50505050905090810190601f168015610b545780820380516001836020036101000a031916815260200191505b50935050505060405180910390a15050565b6004602052806000526040600020600091509050806000018054600181600116156101000203166002900480601f016020809104026020016040519081016040528092919081815260200182805460018160011615610100020316600290048015610c125780601f10610be757610100808354040283529160200191610c12565b820191906000526020600020905b815481529060010190602001808311610bf557829003601f168201915b505050505090806001018054600181600116156101000203166002900480601f016020809104026020016040519081016040528092919081815260200182805460018160011615610100020316600290048015610cb05780601f10610c8557610100808354040283529160200191610cb0565b820191906000526020600020905b815481529060010190602001808311610c9357829003601f168201915b5050505050905082565b60006060829050600081511415610cd7576000801b915050610ce0565b60208301519150505b919050565b60015481565b60038054600181600116156101000203166002900480601f016020809104026020016040519081016040528092919081815260200182805460018160011615610100020316600290048015610d815780601f10610d5657610100808354040283529160200191610d81565b820191906000526020600020905b815481529060010190602001808311610d6457829003601f168201915b505050505081565b606060008290506060816040516020018082815260200191505060405160208183030381529060405290508092505050919050565b6000809054906101000a900473ffffffffffffffffffffffffffffffffffffffff1673ffffffffffffffffffffffffffffffffffffffff163373ffffffffffffffffffffffffffffffffffffffff1614610e1757600080fd5b600073ffffffffffffffffffffffffffffffffffffffff168173ffffffffffffffffffffffffffffffffffffffff161415610e5157600080fd5b8073ffffffffffffffffffffffffffffffffffffffff166000809054906101000a900473ffffffffffffffffffffffffffffffffffffffff1673ffffffffffffffffffffffffffffffffffffffff167f8be0079c531659141344cd1fd0a4f28419497f9722a3daafe3b4186f6b6457e060405160405180910390a3806000806101000a81548173ffffffffffffffffffffffffffffffffffffffff021916908373ffffffffffffffffffffffffffffffffffffffff16021790555050565b828054600181600116156101000203166002900490600052602060002090601f016020900481019282601f10610f5057805160ff1916838001178555610f7e565b82800160010185558215610f7e579182015b82811115610f7d578251825591602001919060010190610f62565b5b509050610f8b9190610f8f565b5090565b610fb191905b80821115610fad576000816000905550600101610f95565b5090565b9056fea265627a7a72315820058fec0d53bf8e73d38deb75f86035f951a569087b9eba4d66221cc95f2f076464736f6c63430005100032",
  "source": "// SPDX-License-Identifier: MIT\r\npragma solidity >=0.4.22 <0.9.0;\r\n\r\nimport \"contracts/Ownable.sol\";\r\nimport \"contracts/DateLib.sol\";\r\n\r\ncontract AssetManager is Ownable {\r\n    uint256 public assetCount;\r\n    string public theCode;\r\n    string public theName;\r\n\r\n    struct Asset {\r\n        string code; //unique id (barcode)\r\n        string assetName;\r\n    }\r\n\r\n    mapping(uint256 => Asset) public assets;\r\n\r\n    mapping(string => string) public getNameFromCode;\r\n\r\n    event AssetCreated(string asset, uint256 assetNumber);\r\n\r\n    constructor() public {\r\n        theCode = \"vini_code\";\r\n        theName = \"vini\";\r\n        assets[0] = Asset(theCode, theName);        \r\n        //getNameFromCode[\"vini_code\"] = \"test\";\r\n        assetCount = 1;\r\n    }\r\n\r\n    function createAsset(string memory _code, string memory _assetName) onlyOwner public {\r\n        assets[assetCount++] = Asset(_code, _assetName);\r\n        //getNameFromCode[_code] = _assetName;\r\n\r\n        emit AssetCreated(_assetName, assetCount - 1);\r\n    }\r\n\r\n    // function getAssetByCode (string memory _assetCode) public view returns (string memory) {\r\n    //     return getNameFromCode[_assetCode];\r\n    // }\r\n   \r\n    function stringToBytes32(string memory source) public pure returns (bytes32 result) {\r\n        bytes memory tempEmptyStringTest = bytes(source);\r\n        if (tempEmptyStringTest.length == 0) {\r\n            return 0x0;\r\n        }\r\n\r\n        assembly {\r\n            result := mload(add(source, 32))\r\n        }\r\n    }\r\n\r\n    function bytes32ToStr(bytes32 _bytes32) public pure returns (string memory) {\r\n        bytes32 theString = _bytes32;\r\n        string memory res = string(abi.encodePacked(theString));\r\n        return string(res);\r\n    }\r\n\r\n    function addTestData() public {\r\n        createAsset(\"manu_code\", \"manu\");\r\n        createAsset(\"bili_code\", \"bili\");\r\n    }\r\n}\r\n",
  "sourcePath": "E:/projects/duara/duara_sc_dapp/contracts/AssetManager.sol",
  "compiler": {
    "name": "solc",
    "version": "0.5.16+commit.9c3226ce.Emscripten.clang"
  },
  "schemaVersion": "3.4.1",
  "updatedAt": "2021-07-21T02:27:17.777Z",
  "networkType": "ethereum",
  "devdoc": {
    "methods": {
      "transferOwnership(address)": {
        "details": "Allows the current owner to transfer control of the contract to a newOwner.",
        "params": {
          "newOwner": "The address to transfer ownership to."
        }
      }
    }
  },
  "userdoc": {
    "methods": {}
  }
}