{
  "contractName": "AssetManager",
  "abi": [
    {
      "inputs": [],
      "payable": false,
      "stateMutability": "nonpayable",
      "type": "constructor"
    },
    {
      "anonymous": false,
      "inputs": [
        {
          "indexed": false,
          "internalType": "string",
          "name": "asset",
          "type": "string"
        },
        {
          "indexed": false,
          "internalType": "uint256",
          "name": "assetNumber",
          "type": "uint256"
        }
      ],
      "name": "AssetCreated",
      "type": "event"
    },
    {
      "constant": true,
      "inputs": [],
      "name": "assetCount",
      "outputs": [
        {
          "internalType": "uint256",
          "name": "",
          "type": "uint256"
        }
      ],
      "payable": false,
      "stateMutability": "view",
      "type": "function"
    },
    {
      "constant": true,
      "inputs": [
        {
          "internalType": "uint256",
          "name": "",
          "type": "uint256"
        }
      ],
      "name": "assets",
      "outputs": [
        {
          "internalType": "string",
          "name": "code",
          "type": "string"
        },
        {
          "internalType": "string",
          "name": "assetName",
          "type": "string"
        }
      ],
      "payable": false,
      "stateMutability": "view",
      "type": "function"
    },
    {
      "constant": true,
      "inputs": [
        {
          "internalType": "string",
          "name": "",
          "type": "string"
        }
      ],
      "name": "getNameFromCode",
      "outputs": [
        {
          "internalType": "string",
          "name": "",
          "type": "string"
        }
      ],
      "payable": false,
      "stateMutability": "view",
      "type": "function"
    },
    {
      "constant": true,
      "inputs": [],
      "name": "theCode",
      "outputs": [
        {
          "internalType": "string",
          "name": "",
          "type": "string"
        }
      ],
      "payable": false,
      "stateMutability": "view",
      "type": "function"
    },
    {
      "constant": true,
      "inputs": [],
      "name": "theName",
      "outputs": [
        {
          "internalType": "string",
          "name": "",
          "type": "string"
        }
      ],
      "payable": false,
      "stateMutability": "view",
      "type": "function"
    },
    {
      "constant": false,
      "inputs": [
        {
          "internalType": "string",
          "name": "_code",
          "type": "string"
        },
        {
          "internalType": "string",
          "name": "_assetName",
          "type": "string"
        }
      ],
      "name": "createAsset",
      "outputs": [],
      "payable": false,
      "stateMutability": "nonpayable",
      "type": "function"
    },
    {
      "constant": true,
      "inputs": [
        {
          "internalType": "string",
          "name": "source",
          "type": "string"
        }
      ],
      "name": "stringToBytes32",
      "outputs": [
        {
          "internalType": "bytes32",
          "name": "result",
          "type": "bytes32"
        }
      ],
      "payable": false,
      "stateMutability": "pure",
      "type": "function"
    },
    {
      "constant": true,
      "inputs": [
        {
          "internalType": "bytes32",
          "name": "_bytes32",
          "type": "bytes32"
        }
      ],
      "name": "bytes32ToStr",
      "outputs": [
        {
          "internalType": "string",
          "name": "",
          "type": "string"
        }
      ],
      "payable": false,
      "stateMutability": "pure",
      "type": "function"
    },
    {
      "constant": false,
      "inputs": [],
      "name": "addTestData",
      "outputs": [],
      "payable": false,
      "stateMutability": "nonpayable",
      "type": "function"
    }
  ],
  "bytecode": "0x60806040523480156200001157600080fd5b506040518060400160405280600981526020017f76696e695f636f64650000000000000000000000000000000000000000000000815250600190805190602001906200005f92919062000261565b506040518060400160405280600481526020017f76696e690000000000000000000000000000000000000000000000000000000081525060029080519060200190620000ad92919062000261565b50604051806040016040528060018054600181600116156101000203166002900480601f016020809104026020016040519081016040528092919081815260200182805460018160011615610100020316600290048015620001535780601f10620001275761010080835404028352916020019162000153565b820191906000526020600020905b8154815290600101906020018083116200013557829003601f168201915b5050505050815260200160028054600181600116156101000203166002900480601f016020809104026020016040519081016040528092919081815260200182805460018160011615610100020316600290048015620001f75780601f10620001cb57610100808354040283529160200191620001f7565b820191906000526020600020905b815481529060010190602001808311620001d957829003601f168201915b505050505081525060036000808152602001908152602001600020600082015181600001908051906020019062000230929190620002e8565b5060208201518160010190805190602001906200024f929190620002e8565b50905050600160008190555062000397565b828054600181600116156101000203166002900490600052602060002090601f016020900481019282601f10620002a457805160ff1916838001178555620002d5565b82800160010185558215620002d5579182015b82811115620002d4578251825591602001919060010190620002b7565b5b509050620002e491906200036f565b5090565b828054600181600116156101000203166002900490600052602060002090601f016020900481019282601f106200032b57805160ff19168380011785556200035c565b828001600101855582156200035c579182015b828111156200035b5782518255916020019190600101906200033e565b5b5090506200036b91906200036f565b5090565b6200039491905b808211156200039057600081600090555060010162000376565b5090565b90565b610e7480620003a76000396000f3fe608060405234801561001057600080fd5b50600436106100935760003560e01c8063cf35bdd011610066578063cf35bdd0146103ab578063cfb51928146104be578063eafe7a741461058d578063ec23c1b1146105ab578063ef0b23681461062e57610093565b8063021398bd1461009857806354a32d171461011b578063a212b4541461024f578063a2a55b6814610259575b600080fd5b6100a06106d5565b6040518080602001828103825283818151815260200191508051906020019080838360005b838110156100e05780820151818401526020810190506100c5565b50505050905090810190601f16801561010d5780820380516001836020036101000a031916815260200191505b509250505060405180910390f35b6101d46004803603602081101561013157600080fd5b810190808035906020019064010000000081111561014e57600080fd5b82018360208201111561016057600080fd5b8035906020019184600183028401116401000000008311171561018257600080fd5b91908080601f016020809104026020016040519081016040528093929190818152602001838380828437600081840152601f19601f820116905080830192505050505050509192919290505050610773565b6040518080602001828103825283818151815260200191508051906020019080838360005b838110156102145780820151818401526020810190506101f9565b50505050905090810190601f1680156102415780820380516001836020036101000a031916815260200191505b509250505060405180910390f35b610257610839565b005b6103a96004803603604081101561026f57600080fd5b810190808035906020019064010000000081111561028c57600080fd5b82018360208201111561029e57600080fd5b803590602001918460018302840111640100000000831117156102c057600080fd5b91908080601f016020809104026020016040519081016040528093929190818152602001838380828437600081840152601f19601f8201169050808301925050505050505091929192908035906020019064010000000081111561032357600080fd5b82018360208201111561033557600080fd5b8035906020019184600183028401116401000000008311171561035757600080fd5b91908080601f016020809104026020016040519081016040528093929190818152602001838380828437600081840152601f19601f820116905080830192505050505050509192919290505050610923565b005b6103d7600480360360208110156103c157600080fd5b8101908080359060200190929190505050610ac2565b604051808060200180602001838103835285818151815260200191508051906020019080838360005b8381101561041b578082015181840152602081019050610400565b50505050905090810190601f1680156104485780820380516001836020036101000a031916815260200191505b50838103825284818151815260200191508051906020019080838360005b83811015610481578082015181840152602081019050610466565b50505050905090810190601f1680156104ae5780820380516001836020036101000a031916815260200191505b5094505050505060405180910390f35b610577600480360360208110156104d457600080fd5b81019080803590602001906401000000008111156104f157600080fd5b82018360208201111561050357600080fd5b8035906020019184600183028401116401000000008311171561052557600080fd5b91908080601f016020809104026020016040519081016040528093929190818152602001838380828437600081840152601f19601f820116905080830192505050505050509192919290505050610c16565b6040518082815260200191505060405180910390f35b610595610c41565b6040518082815260200191505060405180910390f35b6105b3610c47565b6040518080602001828103825283818151815260200191508051906020019080838360005b838110156105f35780820151818401526020810190506105d8565b50505050905090810190601f1680156106205780820380516001836020036101000a031916815260200191505b509250505060405180910390f35b61065a6004803603602081101561064457600080fd5b8101908080359060200190929190505050610ce5565b6040518080602001828103825283818151815260200191508051906020019080838360005b8381101561069a57808201518184015260208101905061067f565b50505050905090810190601f1680156106c75780820380516001836020036101000a031916815260200191505b509250505060405180910390f35b60018054600181600116156101000203166002900480601f01602080910402602001604051908101604052809291908181526020018280546001816001161561010002031660029004801561076b5780601f106107405761010080835404028352916020019161076b565b820191906000526020600020905b81548152906001019060200180831161074e57829003601f168201915b505050505081565b6004818051602081018201805184825260208301602085012081835280955050505050506000915090508054600181600116156101000203166002900480601f0160208091040260200160405190810160405280929190818152602001828054600181600116156101000203166002900480156108315780601f1061080657610100808354040283529160200191610831565b820191906000526020600020905b81548152906001019060200180831161081457829003601f168201915b505050505081565b6108ad6040518060400160405280600981526020017f6d616e755f636f646500000000000000000000000000000000000000000000008152506040518060400160405280600481526020017f6d616e7500000000000000000000000000000000000000000000000000000000815250610923565b6109216040518060400160405280600981526020017f62696c695f636f646500000000000000000000000000000000000000000000008152506040518060400160405280600481526020017f62696c6900000000000000000000000000000000000000000000000000000000815250610923565b565b604051806040016040528083815260200182815250600360008060008154809291906001019190505581526020019081526020016000206000820151816000019080519060200190610976929190610d1a565b506020820151816001019080519060200190610993929190610d1a565b50905050806004836040518082805190602001908083835b602083106109ce57805182526020820191506020810190506020830392506109ab565b6001836020036101000a03801982511681845116808217855250505050505090500191505090815260200160405180910390209080519060200190610a14929190610d9a565b507f2a1f7f425b4ca5fe247c52f3b89fcf14eb5f93bd0817000d8f993db905deaedc816001600054036040518080602001838152602001828103825284818151815260200191508051906020019080838360005b83811015610a83578082015181840152602081019050610a68565b50505050905090810190601f168015610ab05780820380516001836020036101000a031916815260200191505b50935050505060405180910390a15050565b6003602052806000526040600020600091509050806000018054600181600116156101000203166002900480601f016020809104026020016040519081016040528092919081815260200182805460018160011615610100020316600290048015610b6e5780601f10610b4357610100808354040283529160200191610b6e565b820191906000526020600020905b815481529060010190602001808311610b5157829003601f168201915b505050505090806001018054600181600116156101000203166002900480601f016020809104026020016040519081016040528092919081815260200182805460018160011615610100020316600290048015610c0c5780601f10610be157610100808354040283529160200191610c0c565b820191906000526020600020905b815481529060010190602001808311610bef57829003601f168201915b5050505050905082565b60006060829050600081511415610c33576000801b915050610c3c565b60208301519150505b919050565b60005481565b60028054600181600116156101000203166002900480601f016020809104026020016040519081016040528092919081815260200182805460018160011615610100020316600290048015610cdd5780601f10610cb257610100808354040283529160200191610cdd565b820191906000526020600020905b815481529060010190602001808311610cc057829003601f168201915b505050505081565b606060008290506060816040516020018082815260200191505060405160208183030381529060405290508092505050919050565b828054600181600116156101000203166002900490600052602060002090601f016020900481019282601f10610d5b57805160ff1916838001178555610d89565b82800160010185558215610d89579182015b82811115610d88578251825591602001919060010190610d6d565b5b509050610d969190610e1a565b5090565b828054600181600116156101000203166002900490600052602060002090601f016020900481019282601f10610ddb57805160ff1916838001178555610e09565b82800160010185558215610e09579182015b82811115610e08578251825591602001919060010190610ded565b5b509050610e169190610e1a565b5090565b610e3c91905b80821115610e38576000816000905550600101610e20565b5090565b9056fea265627a7a723158204f25739934586008c1bf93a8720cbab2cde92561466dbc08c7fa362f2854cd8b64736f6c63430005100032",
  "source": "// SPDX-License-Identifier: MIT\r\npragma solidity >=0.4.22 <0.9.0;\r\n\r\ncontract AssetManager {\r\n    uint256 public assetCount;\r\n    string public theCode;\r\n    string public theName;\r\n\r\n    struct Asset {\r\n        string code; //unique id (barcode)\r\n        string assetName;\r\n    }\r\n\r\n    mapping(uint256 => Asset) public assets;\r\n\r\n    mapping(string => string) public getNameFromCode;\r\n\r\n    event AssetCreated(string asset, uint256 assetNumber);\r\n\r\n    constructor() public {\r\n        theCode = \"vini_code\";\r\n        theName = \"vini\";\r\n        assets[0] = Asset(theCode, theName);        \r\n        //getNameFromCode[\"vini_code\"] = \"test\";\r\n        assetCount = 1;\r\n    }\r\n\r\n    function createAsset(string memory _code, string memory _assetName) public {\r\n        assets[assetCount++] = Asset(_code, _assetName);\r\n        getNameFromCode[_code] = _assetName;\r\n\r\n        emit AssetCreated(_assetName, assetCount - 1);\r\n    }\r\n\r\n    // function getAssetByCode (string memory _assetCode) public view returns (string memory) {\r\n    //     return getNameFromCode[_assetCode];\r\n    // }\r\n   \r\n    function stringToBytes32(string memory source) public pure returns (bytes32 result) {\r\n        bytes memory tempEmptyStringTest = bytes(source);\r\n        if (tempEmptyStringTest.length == 0) {\r\n            return 0x0;\r\n        }\r\n\r\n        assembly {\r\n            result := mload(add(source, 32))\r\n        }\r\n    }\r\n\r\n    function bytes32ToStr(bytes32 _bytes32) public pure returns (string memory) {\r\n        bytes32 theString = _bytes32;\r\n        string memory res = string(abi.encodePacked(theString));\r\n        return string(res);\r\n    }\r\n\r\n    function addTestData() public {\r\n        createAsset(\"manu_code\", \"manu\");\r\n        createAsset(\"bili_code\", \"bili\");\r\n    }\r\n}\r\n",
  "sourcePath": "E:/projects/duara/duara_sc_dapp/contracts/AssetManager.sol",
  "compiler": {
    "name": "solc",
    "version": "0.5.16+commit.9c3226ce.Emscripten.clang"
  },
  "schemaVersion": "3.4.1",
  "updatedAt": "2021-07-17T23:44:10.638Z",
  "devdoc": {
    "methods": {}
  },
  "userdoc": {
    "methods": {}
  }
}