{
  "contractName": "AssetManager",
  "abi": [
    {
      "inputs": [],
      "payable": false,
      "stateMutability": "nonpayable",
      "type": "constructor"
    },
    {
      "anonymous": false,
      "inputs": [
        {
          "indexed": false,
          "internalType": "string",
          "name": "asset",
          "type": "string"
        },
        {
          "indexed": false,
          "internalType": "uint256",
          "name": "assetNumber",
          "type": "uint256"
        }
      ],
      "name": "AssetCreated",
      "type": "event"
    },
    {
      "constant": true,
      "inputs": [],
      "name": "assetCode",
      "outputs": [
        {
          "internalType": "bytes32",
          "name": "",
          "type": "bytes32"
        }
      ],
      "payable": false,
      "stateMutability": "view",
      "type": "function"
    },
    {
      "constant": true,
      "inputs": [],
      "name": "assetCount",
      "outputs": [
        {
          "internalType": "uint256",
          "name": "",
          "type": "uint256"
        }
      ],
      "payable": false,
      "stateMutability": "view",
      "type": "function"
    },
    {
      "constant": true,
      "inputs": [
        {
          "internalType": "uint256",
          "name": "",
          "type": "uint256"
        }
      ],
      "name": "assets",
      "outputs": [
        {
          "internalType": "bytes32",
          "name": "code",
          "type": "bytes32"
        },
        {
          "internalType": "string",
          "name": "assetName",
          "type": "string"
        }
      ],
      "payable": false,
      "stateMutability": "view",
      "type": "function"
    },
    {
      "constant": true,
      "inputs": [
        {
          "internalType": "bytes",
          "name": "",
          "type": "bytes"
        }
      ],
      "name": "demAssets",
      "outputs": [
        {
          "internalType": "bytes32",
          "name": "code",
          "type": "bytes32"
        },
        {
          "internalType": "string",
          "name": "assetName",
          "type": "string"
        }
      ],
      "payable": false,
      "stateMutability": "view",
      "type": "function"
    },
    {
      "constant": false,
      "inputs": [
        {
          "internalType": "string",
          "name": "_code",
          "type": "string"
        },
        {
          "internalType": "string",
          "name": "_assetName",
          "type": "string"
        }
      ],
      "name": "createAsset",
      "outputs": [],
      "payable": false,
      "stateMutability": "nonpayable",
      "type": "function"
    },
    {
      "constant": true,
      "inputs": [
        {
          "internalType": "string",
          "name": "source",
          "type": "string"
        }
      ],
      "name": "stringToBytes32",
      "outputs": [
        {
          "internalType": "bytes32",
          "name": "result",
          "type": "bytes32"
        }
      ],
      "payable": false,
      "stateMutability": "pure",
      "type": "function"
    },
    {
      "constant": true,
      "inputs": [
        {
          "internalType": "bytes32",
          "name": "_bytes32",
          "type": "bytes32"
        }
      ],
      "name": "bytes32ToStr",
      "outputs": [
        {
          "internalType": "string",
          "name": "",
          "type": "string"
        }
      ],
      "payable": false,
      "stateMutability": "pure",
      "type": "function"
    },
    {
      "constant": false,
      "inputs": [],
      "name": "addTestData",
      "outputs": [],
      "payable": false,
      "stateMutability": "nonpayable",
      "type": "function"
    }
  ],
  "bytecode": "0x608060405234801561001057600080fd5b506100556040518060400160405280600981526020017f76696e695f636f646500000000000000000000000000000000000000000000008152506100f160201b60201c565b600181905550604051806040016040528060015481526020016040518060400160405280600481526020017f7465737400000000000000000000000000000000000000000000000000000000815250815250600260008081526020019081526020016000206000820151816000015560208201518160010190805190602001906100e092919061011c565b5090505060016000819055506101c1565b6000606082905060008151141561010e576000801b915050610117565b60208301519150505b919050565b828054600181600116156101000203166002900490600052602060002090601f016020900481019282601f1061015d57805160ff191683800117855561018b565b8280016001018555821561018b579182015b8281111561018a57825182559160200191906001019061016f565b5b509050610198919061019c565b5090565b6101be91905b808211156101ba5760008160009055506001016101a2565b5090565b90565b610a5e806101d06000396000f3fe608060405234801561001057600080fd5b50600436106100885760003560e01c8063cf35bdd01161005b578063cf35bdd014610342578063cfb51928146103f0578063eafe7a74146104bf578063ef0b2368146104dd57610088565b806349f6fedf1461008d5780634e841e3e146101c8578063a212b454146101e6578063a2a55b68146101f0575b600080fd5b610146600480360360208110156100a357600080fd5b81019080803590602001906401000000008111156100c057600080fd5b8201836020820111156100d257600080fd5b803590602001918460018302840111640100000000831117156100f457600080fd5b91908080601f016020809104026020016040519081016040528093929190818152602001838380828437600081840152601f19601f820116905080830192505050505050509192919290505050610584565b6040518083815260200180602001828103825283818151815260200191508051906020019080838360005b8381101561018c578082015181840152602081019050610171565b50505050905090810190601f1680156101b95780820380516001836020036101000a031916815260200191505b50935050505060405180910390f35b6101d0610656565b6040518082815260200191505060405180910390f35b6101ee61065c565b005b6103406004803603604081101561020657600080fd5b810190808035906020019064010000000081111561022357600080fd5b82018360208201111561023557600080fd5b8035906020019184600183028401116401000000008311171561025757600080fd5b91908080601f016020809104026020016040519081016040528093929190818152602001838380828437600081840152601f19601f820116905080830192505050505050509192919290803590602001906401000000008111156102ba57600080fd5b8201836020820111156102cc57600080fd5b803590602001918460018302840111640100000000831117156102ee57600080fd5b91908080601f016020809104026020016040519081016040528093929190818152602001838380828437600081840152601f19601f820116905080830192505050505050509192919290505050610746565b005b61036e6004803603602081101561035857600080fd5b8101908080359060200190929190505050610862565b6040518083815260200180602001828103825283818151815260200191508051906020019080838360005b838110156103b4578082015181840152602081019050610399565b50505050905090810190601f1680156103e15780820380516001836020036101000a031916815260200191505b50935050505060405180910390f35b6104a96004803603602081101561040657600080fd5b810190808035906020019064010000000081111561042357600080fd5b82018360208201111561043557600080fd5b8035906020019184600183028401116401000000008311171561045757600080fd5b91908080601f016020809104026020016040519081016040528093929190818152602001838380828437600081840152601f19601f82011690508083019250505050505050919291929050505061091e565b6040518082815260200191505060405180910390f35b6104c7610949565b6040518082815260200191505060405180910390f35b610509600480360360208110156104f357600080fd5b810190808035906020019092919050505061094f565b6040518080602001828103825283818151815260200191508051906020019080838360005b8381101561054957808201518184015260208101905061052e565b50505050905090810190601f1680156105765780820380516001836020036101000a031916815260200191505b509250505060405180910390f35b600381805160208101820180518482526020830160208501208183528095505050505050600091509050806000015490806001018054600181600116156101000203166002900480601f01602080910402602001604051908101604052809291908181526020018280546001816001161561010002031660029004801561064c5780601f106106215761010080835404028352916020019161064c565b820191906000526020600020905b81548152906001019060200180831161062f57829003601f168201915b5050505050905082565b60015481565b6106d06040518060400160405280600981526020017f6d616e755f636f646500000000000000000000000000000000000000000000008152506040518060400160405280600481526020017f6d616e7500000000000000000000000000000000000000000000000000000000815250610746565b6107446040518060400160405280600981526020017f62696c695f636f646500000000000000000000000000000000000000000000008152506040518060400160405280600481526020017f62696c6900000000000000000000000000000000000000000000000000000000815250610746565b565b60006107518361091e565b9050604051806040016040528082815260200183815250600260008060008154809291906001019190505581526020019081526020016000206000820151816000015560208201518160010190805190602001906107b0929190610984565b509050507f2a1f7f425b4ca5fe247c52f3b89fcf14eb5f93bd0817000d8f993db905deaedc826001600054036040518080602001838152602001828103825284818151815260200191508051906020019080838360005b83811015610822578082015181840152602081019050610807565b50505050905090810190601f16801561084f5780820380516001836020036101000a031916815260200191505b50935050505060405180910390a1505050565b6002602052806000526040600020600091509050806000015490806001018054600181600116156101000203166002900480601f0160208091040260200160405190810160405280929190818152602001828054600181600116156101000203166002900480156109145780601f106108e957610100808354040283529160200191610914565b820191906000526020600020905b8154815290600101906020018083116108f757829003601f168201915b5050505050905082565b6000606082905060008151141561093b576000801b915050610944565b60208301519150505b919050565b60005481565b606060008290506060816040516020018082815260200191505060405160208183030381529060405290508092505050919050565b828054600181600116156101000203166002900490600052602060002090601f016020900481019282601f106109c557805160ff19168380011785556109f3565b828001600101855582156109f3579182015b828111156109f25782518255916020019190600101906109d7565b5b509050610a009190610a04565b5090565b610a2691905b80821115610a22576000816000905550600101610a0a565b5090565b9056fea265627a7a7231582036c60bfc80c38dfe1ede8a6c09eeb015f6e5c2a812ad11aeedd2e333e6017bf364736f6c63430005100032",
  "source": "// SPDX-License-Identifier: MIT\r\npragma solidity >=0.4.22 <0.9.0;\r\n\r\ncontract AssetManager {\r\n    uint256 public assetCount;\r\n    bytes32 public assetCode;\r\n\r\n    struct Asset {\r\n        bytes32 code; //unique id (barcode)\r\n        string assetName;\r\n    }\r\n\r\n    mapping(uint256 => Asset) public assets;\r\n    mapping(bytes => Asset) public demAssets;\r\n\r\n    event AssetCreated(string asset, uint256 assetNumber);\r\n\r\n    constructor() public {\r\n        assetCode = stringToBytes32(\"vini_code\");\r\n        assets[0] = Asset(assetCode, \"test\");\r\n        assetCount = 1;\r\n    }\r\n\r\n    function createAsset(string memory _code, string memory _assetName) public {\r\n        bytes32 code = stringToBytes32(_code);\r\n        assets[assetCount++] = Asset(code, _assetName);\r\n\r\n        emit AssetCreated(_assetName, assetCount - 1);\r\n    }\r\n\r\n   \r\n    function stringToBytes32(string memory source) public pure returns (bytes32 result) {\r\n        bytes memory tempEmptyStringTest = bytes(source);\r\n        if (tempEmptyStringTest.length == 0) {\r\n            return 0x0;\r\n        }\r\n\r\n        assembly {\r\n            result := mload(add(source, 32))\r\n        }\r\n    }\r\n\r\n    function bytes32ToStr(bytes32 _bytes32) public pure returns (string memory) {\r\n        bytes32 theString = _bytes32;\r\n        string memory res = string(abi.encodePacked(theString));\r\n        return string(res);\r\n    }\r\n\r\n    function addTestData() public {\r\n        createAsset(\"manu_code\", \"manu\");\r\n        createAsset(\"bili_code\", \"bili\");\r\n    }\r\n}\r\n",
  "sourcePath": "F:/projects/duara/duara_sc_dapp/contracts/AssetManager.sol",
  "compiler": {
    "name": "solc",
    "version": "0.5.16+commit.9c3226ce.Emscripten.clang"
  },
  "schemaVersion": "3.4.1",
  "updatedAt": "2021-07-07T06:30:42.553Z",
  "networkType": "ethereum",
  "devdoc": {
    "methods": {}
  },
  "userdoc": {
    "methods": {}
  }
}