{
  "contractName": "AssetManager",
  "abi": [
    {
      "inputs": [],
      "payable": false,
      "stateMutability": "nonpayable",
      "type": "constructor"
    },
    {
      "anonymous": false,
      "inputs": [
        {
          "indexed": true,
          "internalType": "address",
          "name": "previousOwner",
          "type": "address"
        },
        {
          "indexed": true,
          "internalType": "address",
          "name": "newOwner",
          "type": "address"
        }
      ],
      "name": "OwnershipTransferred",
      "type": "event"
    },
    {
      "anonymous": false,
      "inputs": [
        {
          "indexed": false,
          "internalType": "string",
          "name": "fetchedAssetName",
          "type": "string"
        }
      ],
      "name": "assetFetched",
      "type": "event"
    },
    {
      "constant": true,
      "inputs": [],
      "name": "assetCount",
      "outputs": [
        {
          "internalType": "uint256",
          "name": "",
          "type": "uint256"
        }
      ],
      "payable": false,
      "stateMutability": "view",
      "type": "function"
    },
    {
      "constant": true,
      "inputs": [],
      "name": "assetID",
      "outputs": [
        {
          "internalType": "bytes32",
          "name": "",
          "type": "bytes32"
        }
      ],
      "payable": false,
      "stateMutability": "view",
      "type": "function"
    },
    {
      "constant": true,
      "inputs": [
        {
          "internalType": "uint256",
          "name": "",
          "type": "uint256"
        }
      ],
      "name": "demAssets",
      "outputs": [
        {
          "internalType": "bytes32",
          "name": "id",
          "type": "bytes32"
        },
        {
          "internalType": "string",
          "name": "name",
          "type": "string"
        }
      ],
      "payable": false,
      "stateMutability": "view",
      "type": "function"
    },
    {
      "constant": true,
      "inputs": [],
      "name": "owner",
      "outputs": [
        {
          "internalType": "address",
          "name": "",
          "type": "address"
        }
      ],
      "payable": false,
      "stateMutability": "view",
      "type": "function"
    },
    {
      "constant": false,
      "inputs": [
        {
          "internalType": "address",
          "name": "newOwner",
          "type": "address"
        }
      ],
      "name": "transferOwnership",
      "outputs": [],
      "payable": false,
      "stateMutability": "nonpayable",
      "type": "function"
    },
    {
      "constant": true,
      "inputs": [
        {
          "internalType": "bytes32",
          "name": "_assetId",
          "type": "bytes32"
        }
      ],
      "name": "assetExists",
      "outputs": [
        {
          "internalType": "bool",
          "name": "",
          "type": "bool"
        }
      ],
      "payable": false,
      "stateMutability": "view",
      "type": "function"
    },
    {
      "constant": false,
      "inputs": [
        {
          "internalType": "string",
          "name": "_id",
          "type": "string"
        },
        {
          "internalType": "string",
          "name": "_name",
          "type": "string"
        }
      ],
      "name": "createAsset",
      "outputs": [
        {
          "internalType": "bytes32",
          "name": "",
          "type": "bytes32"
        }
      ],
      "payable": false,
      "stateMutability": "nonpayable",
      "type": "function"
    },
    {
      "constant": true,
      "inputs": [],
      "name": "getAllAssets",
      "outputs": [
        {
          "internalType": "bytes32[]",
          "name": "",
          "type": "bytes32[]"
        }
      ],
      "payable": false,
      "stateMutability": "view",
      "type": "function"
    },
    {
      "constant": true,
      "inputs": [],
      "name": "getTAssets",
      "outputs": [
        {
          "internalType": "bytes32[]",
          "name": "",
          "type": "bytes32[]"
        }
      ],
      "payable": false,
      "stateMutability": "view",
      "type": "function"
    },
    {
      "constant": false,
      "inputs": [
        {
          "internalType": "string",
          "name": "_assetId",
          "type": "string"
        }
      ],
      "name": "getAssetByCode",
      "outputs": [
        {
          "internalType": "bytes32",
          "name": "id",
          "type": "bytes32"
        },
        {
          "internalType": "string",
          "name": "name",
          "type": "string"
        }
      ],
      "payable": false,
      "stateMutability": "nonpayable",
      "type": "function"
    },
    {
      "constant": true,
      "inputs": [],
      "name": "testConnection",
      "outputs": [
        {
          "internalType": "bool",
          "name": "",
          "type": "bool"
        }
      ],
      "payable": false,
      "stateMutability": "pure",
      "type": "function"
    },
    {
      "constant": false,
      "inputs": [],
      "name": "addTestData",
      "outputs": [],
      "payable": false,
      "stateMutability": "nonpayable",
      "type": "function"
    },
    {
      "constant": true,
      "inputs": [
        {
          "internalType": "string",
          "name": "source",
          "type": "string"
        }
      ],
      "name": "stringToBytes32",
      "outputs": [
        {
          "internalType": "bytes32",
          "name": "result",
          "type": "bytes32"
        }
      ],
      "payable": false,
      "stateMutability": "pure",
      "type": "function"
    },
    {
      "constant": true,
      "inputs": [
        {
          "internalType": "bytes32",
          "name": "_bytes32",
          "type": "bytes32"
        }
      ],
      "name": "bytes32ToStr",
      "outputs": [
        {
          "internalType": "string",
          "name": "",
          "type": "string"
        }
      ],
      "payable": false,
      "stateMutability": "pure",
      "type": "function"
    }
  ],
  "bytecode": "0x60806040523480156200001157600080fd5b50336000806101000a81548173ffffffffffffffffffffffffffffffffffffffff021916908373ffffffffffffffffffffffffffffffffffffffff160217905550620000986040518060400160405280600981526020017f76696e695f636f64650000000000000000000000000000000000000000000000815250620001db60201b60201c565b600581905550604051806040016040528060055481526020016040518060400160405280600481526020017f7465737400000000000000000000000000000000000000000000000000000000815250815250600460008081526020019081526020016000206000820151816000015560208201518160010190805190602001906200012592919062000208565b509050506002604051806040016040528060055481526020016040518060400160405280600481526020017f746573740000000000000000000000000000000000000000000000000000000081525081525090806001815401808255809150509060018203906000526020600020906002020160009091929091909150600082015181600001556020820151816001019080519060200190620001ca92919062000208565b5050505060018081905550620002b7565b60006060829050600081511415620001fa576000801b91505062000203565b60208301519150505b919050565b828054600181600116156101000203166002900490600052602060002090601f016020900481019282601f106200024b57805160ff19168380011785556200027c565b828001600101855582156200027c579182015b828111156200027b5782518255916020019190600101906200025e565b5b5090506200028b91906200028f565b5090565b620002b491905b80821115620002b057600081600090555060010162000296565b5090565b90565b61114580620002c76000396000f3fe608060405234801561001057600080fd5b50600436106100ea5760003560e01c8063a2a55b681161008c578063d7a9c27811610066578063d7a9c27814610646578063eafe7a74146106a5578063ef0b2368146106c3578063f2fde38b1461076a576100ea565b8063a2a55b68146102d6578063cd86a6501461043c578063cfb5192814610577576100ea565b80635ed14f23116100c85780635ed14f23146101b65780636d6a2859146102645780638da5cb5b14610282578063a212b454146102cc576100ea565b80632acada4d146100ef5780633412a15c1461014e5780634cfd678314610170575b600080fd5b6100f76107ae565b6040518080602001828103825283818151815260200191508051906020019060200280838360005b8381101561013a57808201518184015260208101905061011f565b505050509050019250505060405180910390f35b610156610867565b604051808215151515815260200191505060405180910390f35b61019c6004803603602081101561018657600080fd5b8101908080359060200190929190505050610870565b604051808215151515815260200191505060405180910390f35b6101e2600480360360208110156101cc57600080fd5b81019080803590602001909291905050506108ad565b6040518083815260200180602001828103825283818151815260200191508051906020019080838360005b8381101561022857808201518184015260208101905061020d565b50505050905090810190601f1680156102555780820380516001836020036101000a031916815260200191505b50935050505060405180910390f35b61026c610969565b6040518082815260200191505060405180910390f35b61028a61096f565b604051808273ffffffffffffffffffffffffffffffffffffffff1673ffffffffffffffffffffffffffffffffffffffff16815260200191505060405180910390f35b6102d4610994565b005b610426600480360360408110156102ec57600080fd5b810190808035906020019064010000000081111561030957600080fd5b82018360208201111561031b57600080fd5b8035906020019184600183028401116401000000008311171561033d57600080fd5b91908080601f016020809104026020016040519081016040528093929190818152602001838380828437600081840152601f19601f820116905080830192505050505050509192919290803590602001906401000000008111156103a057600080fd5b8201836020820111156103b257600080fd5b803590602001918460018302840111640100000000831117156103d457600080fd5b91908080601f016020809104026020016040519081016040528093929190818152602001838380828437600081840152601f19601f820116905080830192505050505050509192919290505050610ad9565b6040518082815260200191505060405180910390f35b6104f56004803603602081101561045257600080fd5b810190808035906020019064010000000081111561046f57600080fd5b82018360208201111561048157600080fd5b803590602001918460018302840111640100000000831117156104a357600080fd5b91908080601f016020809104026020016040519081016040528093929190818152602001838380828437600081840152601f19601f820116905080830192505050505050509192919290505050610c4e565b6040518083815260200180602001828103825283818151815260200191508051906020019080838360005b8381101561053b578082015181840152602081019050610520565b50505050905090810190601f1680156105685780820380516001836020036101000a031916815260200191505b50935050505060405180910390f35b6106306004803603602081101561058d57600080fd5b81019080803590602001906401000000008111156105aa57600080fd5b8201836020820111156105bc57600080fd5b803590602001918460018302840111640100000000831117156105de57600080fd5b91908080601f016020809104026020016040519081016040528093929190818152602001838380828437600081840152601f19601f820116905080830192505050505050509192919290505050610dec565b6040518082815260200191505060405180910390f35b61064e610e17565b6040518080602001828103825283818151815260200191508051906020019060200280838360005b83811015610691578082015181840152602081019050610676565b505050509050019250505060405180910390f35b6106ad610ebf565b6040518082815260200191505060405180910390f35b6106ef600480360360208110156106d957600080fd5b8101908080359060200190929190505050610ec5565b6040518080602001828103825283818151815260200191508051906020019080838360005b8381101561072f578082015181840152602081019050610714565b50505050905090810190601f16801561075c5780820380516001836020036101000a031916815260200191505b509250505060405180910390f35b6107ac6004803603602081101561078057600080fd5b81019080803573ffffffffffffffffffffffffffffffffffffffff169060200190929190505050610efa565b005b6060806002805490506040519080825280602002602001820160405280156107e55781602001602082028038833980820191505090505b50905060006002805490501115610860576000809050600060028054905090505b600081111561085d576002600182038154811061081f57fe5b90600052602060002090600202016000015483838060010194508151811061084357fe5b602002602001018181525050808060019003915050610806565b50505b8091505090565b60006001905090565b600080600280549050141561088857600090506108a8565b600060036000848152602001908152602001600020549050600081119150505b919050565b6004602052806000526040600020600091509050806000015490806001018054600181600116156101000203166002900480601f01602080910402602001604051908101604052809291908181526020018280546001816001161561010002031660029004801561095f5780601f106109345761010080835404028352916020019161095f565b820191906000526020600020905b81548152906001019060200180831161094257829003601f168201915b5050505050905082565b60055481565b6000809054906101000a900473ffffffffffffffffffffffffffffffffffffffff1681565b6000809054906101000a900473ffffffffffffffffffffffffffffffffffffffff1673ffffffffffffffffffffffffffffffffffffffff163373ffffffffffffffffffffffffffffffffffffffff16146109ed57600080fd5b610a616040518060400160405280600981526020017f6d616e755f636f646500000000000000000000000000000000000000000000008152506040518060400160405280601781526020017f506163717569616f2076732e204d617957656174686572000000000000000000815250610ad9565b50610ad66040518060400160405280600981526020017f62696c695f636f646500000000000000000000000000000000000000000000008152506040518060400160405280600e81526020017f6c6967692076732e206e646f676f000000000000000000000000000000000000815250610ad9565b50565b60008060009054906101000a900473ffffffffffffffffffffffffffffffffffffffff1673ffffffffffffffffffffffffffffffffffffffff163373ffffffffffffffffffffffffffffffffffffffff1614610b3457600080fd5b6000610b3f84610dec565b9050610b4a81610870565b15610b5457600080fd5b60006001600260405180604001604052808581526020018781525090806001815401808255809150509060018203906000526020600020906002020160009091929091909150600082015181600001556020820151816001019080519060200190610bc092919061106b565b5050500390506001810160036000848152602001908152602001600020819055506040518060400160405280838152602001858152506004600060016000815480929190600101919050558152602001908152602001600020600082015181600001556020820151816001019080519060200190610c3f92919061106b565b50905050819250505092915050565b6000606060006002610c67610c6286610dec565b61104b565b81548110610c7157fe5b906000526020600020906002020190507fcbd04b84729d18ad0c9e7c55502604b92306ae4d821ecf8f97509080c3dfab41816001016040518080602001828103825283818154600181600116156101000203166002900481526020019150805460018160011615610100020316600290048015610d2f5780601f10610d0457610100808354040283529160200191610d2f565b820191906000526020600020905b815481529060010190602001808311610d1257829003601f168201915b50509250505060405180910390a1806000015481600101808054600181600116156101000203166002900480601f016020809104026020016040519081016040528092919081815260200182805460018160011615610100020316600290048015610ddb5780601f10610db057610100808354040283529160200191610ddb565b820191906000526020600020905b815481529060010190602001808311610dbe57829003601f168201915b505050505090509250925050915091565b60006060829050600081511415610e09576000801b915050610e12565b60208301519150505b919050565b606080600154604051908082528060200260200182016040528015610e4b5781602001602082028038833980820191505090505b50905060006001541115610eb8576000809050600060015490505b6000811115610eb5576004600060018303815260200190815260200160002060000154838380600101945081518110610e9b57fe5b602002602001018181525050808060019003915050610e66565b50505b8091505090565b60015481565b606060008290506060816040516020018082815260200191505060405160208183030381529060405290508092505050919050565b6000809054906101000a900473ffffffffffffffffffffffffffffffffffffffff1673ffffffffffffffffffffffffffffffffffffffff163373ffffffffffffffffffffffffffffffffffffffff1614610f5357600080fd5b600073ffffffffffffffffffffffffffffffffffffffff168173ffffffffffffffffffffffffffffffffffffffff161415610f8d57600080fd5b8073ffffffffffffffffffffffffffffffffffffffff166000809054906101000a900473ffffffffffffffffffffffffffffffffffffffff1673ffffffffffffffffffffffffffffffffffffffff167f8be0079c531659141344cd1fd0a4f28419497f9722a3daafe3b4186f6b6457e060405160405180910390a3806000806101000a81548173ffffffffffffffffffffffffffffffffffffffff021916908373ffffffffffffffffffffffffffffffffffffffff16021790555050565b600060016003600084815260200190815260200160002054039050919050565b828054600181600116156101000203166002900490600052602060002090601f016020900481019282601f106110ac57805160ff19168380011785556110da565b828001600101855582156110da579182015b828111156110d95782518255916020019190600101906110be565b5b5090506110e791906110eb565b5090565b61110d91905b808211156111095760008160009055506001016110f1565b5090565b9056fea265627a7a72315820ecea7bc231daccef55200e18ec9a857157a22c29cc7ad76be2587568240ec62664736f6c63430005100032",
  "source": "pragma solidity >=0.4.22 <0.9.0;\n\nimport \"./Ownable.sol\";\nimport \"./DateLib.sol\";\n\n\ncontract AssetManager is Ownable {\n    uint256 public assetCount;\n    Asset[] assets; \n    mapping(bytes32 => uint) assetIdToIndex; \n    mapping (uint256 => Asset) public demAssets;\n\n    using DateLib for DateLib.DateTime;\n\n    // defines an asset\n    struct Asset {\n        bytes32 id; //unique id (barcode)\n        string name;\n    }\n\n    event assetFetched (string fetchedAssetName);\n\n    bytes32 public assetID;\n\n    constructor () public {\n        assetID = stringToBytes32(\"vini_code\");\n        demAssets[0] = Asset(assetID, \"test\");\n        assets.push(Asset(assetID, \"test\"));\n\t\tassetCount = 1;\n\t}\n\n    /// @notice returns the array index of the match with the given id \n    /// @dev if the match id is invalid, then the return value will be incorrect and may cause error; you must call matchExists(_matchId) first!\n    /// @param _assetId the match id to get\n    /// @return an array index \n\n    function _getAssetIndex(bytes32 _assetId) private view returns (uint) {\n        return assetIdToIndex[_assetId]-1; \n    }\n\n\n    /// @notice determines whether a match exists with the given id \n    /// @param _assetId the match id to test\n    /// @return true if match exists and id is valid\n    function assetExists(bytes32 _assetId) public view returns (bool) {\n        if (assets.length == 0)\n            return false;\n        uint index = assetIdToIndex[_assetId]; \n        return (index > 0); \n    }\n\n    function createAsset(string memory _id, string memory _name) onlyOwner public returns (bytes32) {\n\n        bytes32 id = stringToBytes32(_id);\n\n        //require that the asset be unique (not already added) \n        require(!assetExists(id));\n        \n        //add the asset \n        uint newIndex = assets.push(Asset(id, _name))-1; \n        assetIdToIndex[id] = newIndex+1;\n        demAssets[assetCount++] = Asset(id, _name);\n        //return the unique id of the new asset\n        return id;\n    }    \n    function getAllAssets() public view returns (bytes32[] memory) {\n        bytes32[] memory output = new bytes32[](assets.length);\n\n        //get all ids \n        if (assets.length > 0) {\n            uint index = 0;\n            for (uint n = assets.length; n > 0; n--) {\n                output[index++] = assets[n-1].id;\n            }\n        }\n        \n        return output; \n    }\n\n    function getTAssets() public view returns (bytes32[] memory) {\n        bytes32[] memory output = new bytes32[](assetCount);\n\n        //get all ids \n        if (assetCount > 0) {\n            uint index = 0;\n            for (uint n = assetCount; n > 0; n--) {\n                output[index++] = demAssets[n-1].id;\n            }\n        }\n        \n        return output; \n    }\n\n    function getAssetByCode(string memory _assetId) public returns (\n        bytes32 id,\n        string memory name) {\n        \n        //get the match \n        // if (assetExists(_assetId)) {\n        //     Asset storage theAsset = assets[_getAssetIndex(_assetId)];\n        //     return (theAsset.id, theAsset.name); \n        // }\n        // else {\n        //     return (_assetId, -1); \n        // }\n        Asset storage theAsset = assets[_getAssetIndex(stringToBytes32(_assetId))];\n        emit assetFetched (theAsset.name);\n\n        return (theAsset.id, theAsset.name);\n    }\n    function testConnection() public pure returns (bool) {\n        return true; \n    }\n\n    function addTestData() external onlyOwner {\n        createAsset(\"manu_code\", \"Pacquiao vs. MayWeather\");\n        createAsset(\"bili_code\", \"ligi vs. ndogo\");\n    }\n\n    \n    function stringToBytes32(string memory source) public pure returns (bytes32 result) {\n        bytes memory tempEmptyStringTest = bytes(source);\n        if (tempEmptyStringTest.length == 0) {\n            return 0x0;\n        }\n\n        assembly {\n            result := mload(add(source, 32))\n        }\n    }\n\n    function bytes32ToStr(bytes32 _bytes32) public pure returns (string memory) {\n        bytes32 theString = _bytes32;\n        string memory res = string(abi.encodePacked(theString));\n        return string(res);\n    }\n\n}\n",
  "sourcePath": "F:/projects/duara/duara_sc_dapp/contracts/AssetManager.sol",
  "compiler": {
    "name": "solc",
    "version": "0.5.16+commit.9c3226ce.Emscripten.clang"
  },
  "schemaVersion": "3.4.1",
  "updatedAt": "2021-06-27T22:59:06.689Z",
  "networkType": "ethereum",
  "devdoc": {
    "methods": {
      "assetExists(bytes32)": {
        "params": {
          "_assetId": "the match id to test"
        },
        "return": "true if match exists and id is valid"
      },
      "transferOwnership(address)": {
        "details": "Allows the current owner to transfer control of the contract to a newOwner.",
        "params": {
          "newOwner": "The address to transfer ownership to."
        }
      }
    }
  },
  "userdoc": {
    "methods": {
      "assetExists(bytes32)": {
        "notice": "determines whether a match exists with the given id "
      }
    }
  }
}