{
  "contractName": "AssetManager",
  "abi": [
    {
      "inputs": [],
      "payable": false,
      "stateMutability": "nonpayable",
      "type": "constructor"
    },
    {
      "anonymous": false,
      "inputs": [
        {
          "indexed": false,
          "internalType": "string",
          "name": "asset",
          "type": "string"
        },
        {
          "indexed": false,
          "internalType": "uint256",
          "name": "assetNumber",
          "type": "uint256"
        }
      ],
      "name": "AssetCreated",
      "type": "event"
    },
    {
      "constant": true,
      "inputs": [],
      "name": "assetCode",
      "outputs": [
        {
          "internalType": "bytes32",
          "name": "",
          "type": "bytes32"
        }
      ],
      "payable": false,
      "stateMutability": "view",
      "type": "function"
    },
    {
      "constant": true,
      "inputs": [],
      "name": "assetCount",
      "outputs": [
        {
          "internalType": "uint256",
          "name": "",
          "type": "uint256"
        }
      ],
      "payable": false,
      "stateMutability": "view",
      "type": "function"
    },
    {
      "constant": true,
      "inputs": [
        {
          "internalType": "uint256",
          "name": "",
          "type": "uint256"
        }
      ],
      "name": "assets",
      "outputs": [
        {
          "internalType": "bytes32",
          "name": "code",
          "type": "bytes32"
        },
        {
          "internalType": "string",
          "name": "assetName",
          "type": "string"
        }
      ],
      "payable": false,
      "stateMutability": "view",
      "type": "function"
    },
    {
      "constant": false,
      "inputs": [
        {
          "internalType": "string",
          "name": "_code",
          "type": "string"
        },
        {
          "internalType": "string",
          "name": "_assetName",
          "type": "string"
        }
      ],
      "name": "createAsset",
      "outputs": [],
      "payable": false,
      "stateMutability": "nonpayable",
      "type": "function"
    },
    {
      "constant": true,
      "inputs": [
        {
          "internalType": "string",
          "name": "_assetCode",
          "type": "string"
        }
      ],
      "name": "getAssetByCode",
      "outputs": [
        {
          "internalType": "string",
          "name": "",
          "type": "string"
        }
      ],
      "payable": false,
      "stateMutability": "view",
      "type": "function"
    },
    {
      "constant": true,
      "inputs": [
        {
          "internalType": "string",
          "name": "source",
          "type": "string"
        }
      ],
      "name": "stringToBytes32",
      "outputs": [
        {
          "internalType": "bytes32",
          "name": "result",
          "type": "bytes32"
        }
      ],
      "payable": false,
      "stateMutability": "pure",
      "type": "function"
    },
    {
      "constant": true,
      "inputs": [
        {
          "internalType": "bytes32",
          "name": "_bytes32",
          "type": "bytes32"
        }
      ],
      "name": "bytes32ToStr",
      "outputs": [
        {
          "internalType": "string",
          "name": "",
          "type": "string"
        }
      ],
      "payable": false,
      "stateMutability": "pure",
      "type": "function"
    },
    {
      "constant": false,
      "inputs": [],
      "name": "addTestData",
      "outputs": [],
      "payable": false,
      "stateMutability": "nonpayable",
      "type": "function"
    }
  ],
  "bytecode": "0x608060405234801561001057600080fd5b506100556040518060400160405280600981526020017f76696e695f636f646500000000000000000000000000000000000000000000008152506100f160201b60201c565b600181905550604051806040016040528060015481526020016040518060400160405280600481526020017f7465737400000000000000000000000000000000000000000000000000000000815250815250600260008081526020019081526020016000206000820151816000015560208201518160010190805190602001906100e092919061011c565b5090505060016000819055506101c1565b6000606082905060008151141561010e576000801b915050610117565b60208301519150505b919050565b828054600181600116156101000203166002900490600052602060002090601f016020900481019282601f1061015d57805160ff191683800117855561018b565b8280016001018555821561018b579182015b8281111561018a57825182559160200191906001019061016f565b5b509050610198919061019c565b5090565b6101be91905b808211156101ba5760008160009055506001016101a2565b5090565b90565b610af0806101d06000396000f3fe608060405234801561001057600080fd5b50600436106100885760003560e01c8063cf35bdd01161005b578063cf35bdd01461033b578063cfb51928146103e9578063eafe7a74146104b8578063ef0b2368146104d657610088565b80634e841e3e1461008d578063a212b454146100ab578063a2a55b68146100b5578063cd86a65014610207575b600080fd5b61009561057d565b6040518082815260200191505060405180910390f35b6100b3610583565b005b610205600480360360408110156100cb57600080fd5b81019080803590602001906401000000008111156100e857600080fd5b8201836020820111156100fa57600080fd5b8035906020019184600183028401116401000000008311171561011c57600080fd5b91908080601f016020809104026020016040519081016040528093929190818152602001838380828437600081840152601f19601f8201169050808301925050505050505091929192908035906020019064010000000081111561017f57600080fd5b82018360208201111561019157600080fd5b803590602001918460018302840111640100000000831117156101b357600080fd5b91908080601f016020809104026020016040519081016040528093929190818152602001838380828437600081840152601f19601f82011690508083019250505050505050919291929050505061066d565b005b6102c06004803603602081101561021d57600080fd5b810190808035906020019064010000000081111561023a57600080fd5b82018360208201111561024c57600080fd5b8035906020019184600183028401116401000000008311171561026e57600080fd5b91908080601f016020809104026020016040519081016040528093929190818152602001838380828437600081840152601f19601f8201169050808301925050505050505091929192905050506107b1565b6040518080602001828103825283818151815260200191508051906020019080838360005b838110156103005780820151818401526020810190506102e5565b50505050905090810190601f16801561032d5780820380516001836020036101000a031916815260200191505b509250505060405180910390f35b6103676004803603602081101561035157600080fd5b8101908080359060200190929190505050610874565b6040518083815260200180602001828103825283818151815260200191508051906020019080838360005b838110156103ad578082015181840152602081019050610392565b50505050905090810190601f1680156103da5780820380516001836020036101000a031916815260200191505b50935050505060405180910390f35b6104a2600480360360208110156103ff57600080fd5b810190808035906020019064010000000081111561041c57600080fd5b82018360208201111561042e57600080fd5b8035906020019184600183028401116401000000008311171561045057600080fd5b91908080601f016020809104026020016040519081016040528093929190818152602001838380828437600081840152601f19601f820116905080830192505050505050509192919290505050610930565b6040518082815260200191505060405180910390f35b6104c061095b565b6040518082815260200191505060405180910390f35b610502600480360360208110156104ec57600080fd5b8101908080359060200190929190505050610961565b6040518080602001828103825283818151815260200191508051906020019080838360005b83811015610542578082015181840152602081019050610527565b50505050905090810190601f16801561056f5780820380516001836020036101000a031916815260200191505b509250505060405180910390f35b60015481565b6105f76040518060400160405280600981526020017f6d616e755f636f646500000000000000000000000000000000000000000000008152506040518060400160405280600481526020017f6d616e750000000000000000000000000000000000000000000000000000000081525061066d565b61066b6040518060400160405280600981526020017f62696c695f636f646500000000000000000000000000000000000000000000008152506040518060400160405280600481526020017f62696c690000000000000000000000000000000000000000000000000000000081525061066d565b565b600061067883610930565b9050604051806040016040528082815260200183815250600260008060008154809291906001019190505581526020019081526020016000206000820151816000015560208201518160010190805190602001906106d7929190610996565b5090505081600360008381526020019081526020016000209080519060200190610702929190610a16565b507f2a1f7f425b4ca5fe247c52f3b89fcf14eb5f93bd0817000d8f993db905deaedc826001600054036040518080602001838152602001828103825284818151815260200191508051906020019080838360005b83811015610771578082015181840152602081019050610756565b50505050905090810190601f16801561079e5780820380516001836020036101000a031916815260200191505b50935050505060405180910390a1505050565b606060006107be83610930565b9050600360008281526020019081526020016000208054600181600116156101000203166002900480601f0160208091040260200160405190810160405280929190818152602001828054600181600116156101000203166002900480156108675780601f1061083c57610100808354040283529160200191610867565b820191906000526020600020905b81548152906001019060200180831161084a57829003601f168201915b5050505050915050919050565b6002602052806000526040600020600091509050806000015490806001018054600181600116156101000203166002900480601f0160208091040260200160405190810160405280929190818152602001828054600181600116156101000203166002900480156109265780601f106108fb57610100808354040283529160200191610926565b820191906000526020600020905b81548152906001019060200180831161090957829003601f168201915b5050505050905082565b6000606082905060008151141561094d576000801b915050610956565b60208301519150505b919050565b60005481565b606060008290506060816040516020018082815260200191505060405160208183030381529060405290508092505050919050565b828054600181600116156101000203166002900490600052602060002090601f016020900481019282601f106109d757805160ff1916838001178555610a05565b82800160010185558215610a05579182015b82811115610a045782518255916020019190600101906109e9565b5b509050610a129190610a96565b5090565b828054600181600116156101000203166002900490600052602060002090601f016020900481019282601f10610a5757805160ff1916838001178555610a85565b82800160010185558215610a85579182015b82811115610a84578251825591602001919060010190610a69565b5b509050610a929190610a96565b5090565b610ab891905b80821115610ab4576000816000905550600101610a9c565b5090565b9056fea265627a7a7231582015d8729e7c8ee891ba36736076bb97c504cbfad681f353447f82e3370d2926aa64736f6c63430005100032",
  "source": "// SPDX-License-Identifier: MIT\r\npragma solidity >=0.4.22 <0.9.0;\r\n\r\ncontract AssetManager {\r\n    uint256 public assetCount;\r\n    bytes32 public assetCode;\r\n\r\n    struct Asset {\r\n        bytes32 code; //unique id (barcode)\r\n        string assetName;\r\n    }\r\n\r\n    mapping(uint256 => Asset) public assets;\r\n\r\n    mapping(bytes32 => string) getNameFromCode;\r\n\r\n    event AssetCreated(string asset, uint256 assetNumber);\r\n\r\n    constructor() public {\r\n        assetCode = stringToBytes32(\"vini_code\");\r\n        assets[0] = Asset(assetCode, \"test\");\r\n        assetCount = 1;\r\n    }\r\n\r\n    function createAsset(string memory _code, string memory _assetName) public {\r\n        bytes32 code = stringToBytes32(_code);\r\n        assets[assetCount++] = Asset(code, _assetName);\r\n        getNameFromCode[code] = _assetName;\r\n\r\n        emit AssetCreated(_assetName, assetCount - 1);\r\n    }\r\n\r\n    function getAssetByCode (string memory _assetCode) public view returns (string memory) {\r\n        bytes32 theCode = stringToBytes32(_assetCode);\r\n        return getNameFromCode[theCode];\r\n    }\r\n   \r\n    function stringToBytes32(string memory source) public pure returns (bytes32 result) {\r\n        bytes memory tempEmptyStringTest = bytes(source);\r\n        if (tempEmptyStringTest.length == 0) {\r\n            return 0x0;\r\n        }\r\n\r\n        assembly {\r\n            result := mload(add(source, 32))\r\n        }\r\n    }\r\n\r\n    function bytes32ToStr(bytes32 _bytes32) public pure returns (string memory) {\r\n        bytes32 theString = _bytes32;\r\n        string memory res = string(abi.encodePacked(theString));\r\n        return string(res);\r\n    }\r\n\r\n    function addTestData() public {\r\n        createAsset(\"manu_code\", \"manu\");\r\n        createAsset(\"bili_code\", \"bili\");\r\n    }\r\n}\r\n",
  "sourcePath": "F:/projects/duara/duara_sc_dapp/contracts/AssetManager.sol",
  "compiler": {
    "name": "solc",
    "version": "0.5.16+commit.9c3226ce.Emscripten.clang"
  },
  "schemaVersion": "3.4.1",
  "updatedAt": "2021-07-08T23:51:46.174Z",
  "networkType": "ethereum",
  "devdoc": {
    "methods": {}
  },
  "userdoc": {
    "methods": {}
  }
}