{
  "contractName": "BoxingOracle",
  "abi": [
    {
      "anonymous": false,
      "inputs": [
        {
          "indexed": true,
          "internalType": "address",
          "name": "previousOwner",
          "type": "address"
        },
        {
          "indexed": true,
          "internalType": "address",
          "name": "newOwner",
          "type": "address"
        }
      ],
      "name": "OwnershipTransferred",
      "type": "event"
    },
    {
      "constant": true,
      "inputs": [],
      "name": "owner",
      "outputs": [
        {
          "internalType": "address",
          "name": "",
          "type": "address"
        }
      ],
      "payable": false,
      "stateMutability": "view",
      "type": "function"
    },
    {
      "constant": false,
      "inputs": [
        {
          "internalType": "address",
          "name": "newOwner",
          "type": "address"
        }
      ],
      "name": "transferOwnership",
      "outputs": [],
      "payable": false,
      "stateMutability": "nonpayable",
      "type": "function"
    },
    {
      "constant": true,
      "inputs": [
        {
          "internalType": "bytes32",
          "name": "_matchId",
          "type": "bytes32"
        }
      ],
      "name": "matchExists",
      "outputs": [
        {
          "internalType": "bool",
          "name": "",
          "type": "bool"
        }
      ],
      "payable": false,
      "stateMutability": "view",
      "type": "function"
    },
    {
      "constant": false,
      "inputs": [
        {
          "internalType": "bytes32",
          "name": "_matchId",
          "type": "bytes32"
        },
        {
          "internalType": "enum BoxingOracle.MatchOutcome",
          "name": "_outcome",
          "type": "uint8"
        },
        {
          "internalType": "int8",
          "name": "_winner",
          "type": "int8"
        }
      ],
      "name": "declareOutcome",
      "outputs": [],
      "payable": false,
      "stateMutability": "nonpayable",
      "type": "function"
    },
    {
      "constant": false,
      "inputs": [
        {
          "internalType": "string",
          "name": "_id",
          "type": "string"
        },
        {
          "internalType": "string",
          "name": "_name",
          "type": "string"
        },
        {
          "internalType": "string",
          "name": "_participants",
          "type": "string"
        },
        {
          "internalType": "uint8",
          "name": "_participantCount",
          "type": "uint8"
        },
        {
          "internalType": "uint256",
          "name": "_date",
          "type": "uint256"
        }
      ],
      "name": "addMatch",
      "outputs": [
        {
          "internalType": "bytes32",
          "name": "",
          "type": "bytes32"
        }
      ],
      "payable": false,
      "stateMutability": "nonpayable",
      "type": "function"
    },
    {
      "constant": true,
      "inputs": [],
      "name": "getPendingMatches",
      "outputs": [
        {
          "internalType": "bytes32[]",
          "name": "",
          "type": "bytes32[]"
        }
      ],
      "payable": false,
      "stateMutability": "view",
      "type": "function"
    },
    {
      "constant": true,
      "inputs": [],
      "name": "getAllMatches",
      "outputs": [
        {
          "internalType": "bytes32[]",
          "name": "",
          "type": "bytes32[]"
        }
      ],
      "payable": false,
      "stateMutability": "view",
      "type": "function"
    },
    {
      "constant": true,
      "inputs": [
        {
          "internalType": "bytes32",
          "name": "_matchId",
          "type": "bytes32"
        }
      ],
      "name": "getMatch",
      "outputs": [
        {
          "internalType": "bytes32",
          "name": "id",
          "type": "bytes32"
        },
        {
          "internalType": "string",
          "name": "name",
          "type": "string"
        },
        {
          "internalType": "string",
          "name": "participants",
          "type": "string"
        },
        {
          "internalType": "uint8",
          "name": "participantCount",
          "type": "uint8"
        },
        {
          "internalType": "uint256",
          "name": "date",
          "type": "uint256"
        },
        {
          "internalType": "enum BoxingOracle.MatchOutcome",
          "name": "outcome",
          "type": "uint8"
        },
        {
          "internalType": "int8",
          "name": "winner",
          "type": "int8"
        }
      ],
      "payable": false,
      "stateMutability": "view",
      "type": "function"
    },
    {
      "constant": true,
      "inputs": [
        {
          "internalType": "string",
          "name": "_matchId",
          "type": "string"
        }
      ],
      "name": "getTheMatch",
      "outputs": [
        {
          "internalType": "bytes32",
          "name": "id",
          "type": "bytes32"
        },
        {
          "internalType": "string",
          "name": "name",
          "type": "string"
        },
        {
          "internalType": "string",
          "name": "participants",
          "type": "string"
        },
        {
          "internalType": "uint8",
          "name": "participantCount",
          "type": "uint8"
        },
        {
          "internalType": "uint256",
          "name": "date",
          "type": "uint256"
        },
        {
          "internalType": "enum BoxingOracle.MatchOutcome",
          "name": "outcome",
          "type": "uint8"
        },
        {
          "internalType": "int8",
          "name": "winner",
          "type": "int8"
        }
      ],
      "payable": false,
      "stateMutability": "view",
      "type": "function"
    },
    {
      "constant": true,
      "inputs": [
        {
          "internalType": "bool",
          "name": "_pending",
          "type": "bool"
        }
      ],
      "name": "getMostRecentMatch",
      "outputs": [
        {
          "internalType": "bytes32",
          "name": "id",
          "type": "bytes32"
        },
        {
          "internalType": "string",
          "name": "name",
          "type": "string"
        },
        {
          "internalType": "string",
          "name": "participants",
          "type": "string"
        },
        {
          "internalType": "uint8",
          "name": "participantCount",
          "type": "uint8"
        },
        {
          "internalType": "uint256",
          "name": "date",
          "type": "uint256"
        },
        {
          "internalType": "enum BoxingOracle.MatchOutcome",
          "name": "outcome",
          "type": "uint8"
        },
        {
          "internalType": "int8",
          "name": "winner",
          "type": "int8"
        }
      ],
      "payable": false,
      "stateMutability": "view",
      "type": "function"
    },
    {
      "constant": true,
      "inputs": [],
      "name": "testConnection",
      "outputs": [
        {
          "internalType": "bool",
          "name": "",
          "type": "bool"
        }
      ],
      "payable": false,
      "stateMutability": "pure",
      "type": "function"
    },
    {
      "constant": false,
      "inputs": [],
      "name": "addTestData",
      "outputs": [],
      "payable": false,
      "stateMutability": "nonpayable",
      "type": "function"
    },
    {
      "constant": true,
      "inputs": [
        {
          "internalType": "string",
          "name": "source",
          "type": "string"
        }
      ],
      "name": "stringToBytes32",
      "outputs": [
        {
          "internalType": "bytes32",
          "name": "result",
          "type": "bytes32"
        }
      ],
      "payable": false,
      "stateMutability": "pure",
      "type": "function"
    },
    {
      "constant": true,
      "inputs": [
        {
          "internalType": "bytes32",
          "name": "_bytes32",
          "type": "bytes32"
        }
      ],
      "name": "bytes32ToStr",
      "outputs": [
        {
          "internalType": "string",
          "name": "",
          "type": "string"
        }
      ],
      "payable": false,
      "stateMutability": "pure",
      "type": "function"
    }
  ],
  "bytecode": "0x6080604052336000806101000a81548173ffffffffffffffffffffffffffffffffffffffff021916908373ffffffffffffffffffffffffffffffffffffffff1602179055506118b4806100536000396000f3fe608060405234801561001057600080fd5b50600436106100ea5760003560e01c8063a93452401161008c578063cfb5192811610066578063cfb51928146107f4578063ef0b2368146108c3578063f2fde38b1461096a578063fcc6077d146109ae576100ea565b8063a9345240146105fd578063bb2b0f5814610643578063c17c5a4514610795576100ea565b80637898d334116100c85780637898d3341461034d5780638ca80c50146103955780638da5cb5b146105a9578063a212b454146105f3576100ea565b80632dd064e5146100ef5780633412a15c146102cc5780635f29d4b1146102ee575b600080fd5b6101a86004803603602081101561010557600080fd5b810190808035906020019064010000000081111561012257600080fd5b82018360208201111561013457600080fd5b8035906020019184600183028401116401000000008311171561015657600080fd5b91908080601f016020809104026020016040519081016040528093929190818152602001838380828437600081840152601f19601f820116905080830192505050505050509192919290505050610afe565b6040518088815260200180602001806020018760ff1660ff1681526020018681526020018560038111156101d857fe5b60ff1681526020018460000b60000b8152602001838103835289818151815260200191508051906020019080838360005b83811015610224578082015181840152602081019050610209565b50505050905090810190601f1680156102515780820380516001836020036101000a031916815260200191505b50838103825288818151815260200191508051906020019080838360005b8381101561028a57808201518184015260208101905061026f565b50505050905090810190601f1680156102b75780820380516001836020036101000a031916815260200191505b50995050505050505050505060405180910390f35b6102d4610cd2565b604051808215151515815260200191505060405180910390f35b6102f6610cdb565b6040518080602001828103825283818151815260200191508051906020019060200280838360005b8381101561033957808201518184015260208101905061031e565b505050509050019250505060405180910390f35b6103936004803603606081101561036357600080fd5b8101908080359060200190929190803560ff169060200190929190803560000b9060200190929190505050610e51565b005b610593600480360360a08110156103ab57600080fd5b81019080803590602001906401000000008111156103c857600080fd5b8201836020820111156103da57600080fd5b803590602001918460018302840111640100000000831117156103fc57600080fd5b91908080601f016020809104026020016040519081016040528093929190818152602001838380828437600081840152601f19601f8201169050808301925050505050505091929192908035906020019064010000000081111561045f57600080fd5b82018360208201111561047157600080fd5b8035906020019184600183028401116401000000008311171561049357600080fd5b91908080601f016020809104026020016040519081016040528093929190818152602001838380828437600081840152601f19601f820116905080830192505050505050509192919290803590602001906401000000008111156104f657600080fd5b82018360208201111561050857600080fd5b8035906020019184600183028401116401000000008311171561052a57600080fd5b91908080601f016020809104026020016040519081016040528093929190818152602001838380828437600081840152601f19601f820116905080830192505050505050509192919290803560ff16906020019092919080359060200190929190505050610fa5565b6040518082815260200191505060405180910390f35b6105b161119f565b604051808273ffffffffffffffffffffffffffffffffffffffff1673ffffffffffffffffffffffffffffffffffffffff16815260200191505060405180910390f35b6105fb6111c4565b005b6106296004803603602081101561061357600080fd5b81019080803590602001909291905050506112cd565b604051808215151515815260200191505060405180910390f35b6106716004803603602081101561065957600080fd5b8101908080351515906020019092919050505061130a565b6040518088815260200180602001806020018760ff1660ff1681526020018681526020018560038111156106a157fe5b60ff1681526020018460000b60000b8152602001838103835289818151815260200191508051906020019080838360005b838110156106ed5780820151818401526020810190506106d2565b50505050905090810190601f16801561071a5780820380516001836020036101000a031916815260200191505b50838103825288818151815260200191508051906020019080838360005b83811015610753578082015181840152602081019050610738565b50505050905090810190601f1680156107805780820380516001836020036101000a031916815260200191505b50995050505050505050505060405180910390f35b61079d611385565b6040518080602001828103825283818151815260200191508051906020019060200280838360005b838110156107e05780820151818401526020810190506107c5565b505050509050019250505060405180910390f35b6108ad6004803603602081101561080a57600080fd5b810190808035906020019064010000000081111561082757600080fd5b82018360208201111561083957600080fd5b8035906020019184600183028401116401000000008311171561085b57600080fd5b91908080601f016020809104026020016040519081016040528093929190818152602001838380828437600081840152601f19601f82011690508083019250505050505050919291929050505061143d565b6040518082815260200191505060405180910390f35b6108ef600480360360208110156108d957600080fd5b8101908080359060200190929190505050611468565b6040518080602001828103825283818151815260200191508051906020019080838360005b8381101561092f578082015181840152602081019050610914565b50505050905090810190601f16801561095c5780820380516001836020036101000a031916815260200191505b509250505060405180910390f35b6109ac6004803603602081101561098057600080fd5b81019080803573ffffffffffffffffffffffffffffffffffffffff16906020019092919050505061149d565b005b6109da600480360360208110156109c457600080fd5b81019080803590602001909291905050506115ee565b6040518088815260200180602001806020018760ff1660ff168152602001868152602001856003811115610a0a57fe5b60ff1681526020018460000b60000b8152602001838103835289818151815260200191508051906020019080838360005b83811015610a56578082015181840152602081019050610a3b565b50505050905090810190601f168015610a835780820380516001836020036101000a031916815260200191505b50838103825288818151815260200191508051906020019080838360005b83811015610abc578082015181840152602081019050610aa1565b50505050905090810190601f168015610ae95780820380516001836020036101000a031916815260200191505b50995050505050505050505060405180910390f35b600060608060008060008060006001610b1e610b198b61143d565b6117ba565b81548110610b2857fe5b90600052602060002090600602019050806000015481600101826002018360030160009054906101000a900460ff1684600401548560050160009054906101000a900460ff168660050160019054906101000a900460000b858054600181600116156101000203166002900480601f016020809104026020016040519081016040528092919081815260200182805460018160011615610100020316600290048015610c155780601f10610bea57610100808354040283529160200191610c15565b820191906000526020600020905b815481529060010190602001808311610bf857829003601f168201915b50505050509550848054600181600116156101000203166002900480601f016020809104026020016040519081016040528092919081815260200182805460018160011615610100020316600290048015610cb15780601f10610c8657610100808354040283529160200191610cb1565b820191906000526020600020905b815481529060010190602001808311610c9457829003601f168201915b50505050509450975097509750975097509750975050919395979092949650565b60006001905090565b6060600080905060008090505b600180549050811015610d555760006003811115610d0257fe5b60018281548110610d0f57fe5b906000526020600020906006020160050160009054906101000a900460ff166003811115610d3957fe5b1415610d485781806001019250505b8080600101915050610ce8565b50606081604051908082528060200260200182016040528015610d875781602001602082028038833980820191505090505b5090506000821115610e49576000809050600060018054905090505b6000811115610e465760006003811115610db957fe5b600180830381548110610dc857fe5b906000526020600020906006020160050160009054906101000a900460ff166003811115610df257fe5b1415610e3857600180820381548110610e0757fe5b906000526020600020906006020160000154838380600101945081518110610e2b57fe5b6020026020010181815250505b808060019003915050610da3565b50505b809250505090565b6000809054906101000a900473ffffffffffffffffffffffffffffffffffffffff1673ffffffffffffffffffffffffffffffffffffffff163373ffffffffffffffffffffffffffffffffffffffff1614610eaa57600080fd5b610eb3836112cd565b610ebc57600080fd5b6000610ec7846117ba565b9050600060018281548110610ed857fe5b90600052602060002090600602019050600380811115610ef457fe5b846003811115610f0057fe5b1415610f3a5760008360000b12158015610f3057508260ff168160030160009054906101000a900460ff1660ff16115b610f3957600080fd5b5b838160050160006101000a81548160ff02191690836003811115610f5a57fe5b0217905550600380811115610f6b57fe5b846003811115610f7757fe5b1415610f9e57828160050160016101000a81548160ff021916908360000b60ff1602179055505b5050505050565b60008060009054906101000a900473ffffffffffffffffffffffffffffffffffffffff1673ffffffffffffffffffffffffffffffffffffffff163373ffffffffffffffffffffffffffffffffffffffff161461100057600080fd5b600061100b8761143d565b9050611016816112cd565b1561102057600080fd5b60006001806040518060e001604052808581526020018a81526020018981526020018860ff1681526020018781526020016000600381111561105e57fe5b81526020017fffffffffffffffffffffffffffffffffffffffffffffffffffffffffffffffff60000b815250908060018154018082558091505090600182039060005260206000209060060201600090919290919091506000820151816000015560208201518160010190805190602001906110db9291906117da565b5060408201518160020190805190602001906110f89291906117da565b5060608201518160030160006101000a81548160ff021916908360ff1602179055506080820151816004015560a08201518160050160006101000a81548160ff0219169083600381111561114857fe5b021790555060c08201518160050160016101000a81548160ff021916908360000b60ff1602179055505050039050600181016002600084815260200190815260200160002081905550819250505095945050505050565b6000809054906101000a900473ffffffffffffffffffffffffffffffffffffffff1681565b6000809054906101000a900473ffffffffffffffffffffffffffffffffffffffff1673ffffffffffffffffffffffffffffffffffffffff163373ffffffffffffffffffffffffffffffffffffffff161461121d57600080fd5b6112ca6040518060400160405280600981526020017f6d616e755f636f646500000000000000000000000000000000000000000000008152506040518060400160405280601781526020017f506163717569616f2076732e204d6179576561746865720000000000000000008152506040518060400160405280601381526020017f506163717569616f7c4d61797765617468657200000000000000000000000000815250600242610fa5565b50565b60008060018054905014156112e55760009050611305565b600060026000848152602001908152602001600020549050600081119150505b919050565b600060608060008060008060008060001b9050606089156113345761132d610cdb565b905061133f565b61133c611385565b90505b600081511115611361578060008151811061135657fe5b602002602001015191505b61136a826115ee565b98509850985098509850985098505050919395979092949650565b6060806001805490506040519080825280602002602001820160405280156113bc5781602001602082028038833980820191505090505b50905060006001805490501115611436576000809050600060018054905090505b6000811115611433576001808203815481106113f557fe5b90600052602060002090600602016000015483838060010194508151811061141957fe5b6020026020010181815250508080600190039150506113dd565b50505b8091505090565b6000606082905060008151141561145a576000801b915050611463565b60208301519150505b919050565b606060008290506060816040516020018082815260200191505060405160208183030381529060405290508092505050919050565b6000809054906101000a900473ffffffffffffffffffffffffffffffffffffffff1673ffffffffffffffffffffffffffffffffffffffff163373ffffffffffffffffffffffffffffffffffffffff16146114f657600080fd5b600073ffffffffffffffffffffffffffffffffffffffff168173ffffffffffffffffffffffffffffffffffffffff16141561153057600080fd5b8073ffffffffffffffffffffffffffffffffffffffff166000809054906101000a900473ffffffffffffffffffffffffffffffffffffffff1673ffffffffffffffffffffffffffffffffffffffff167f8be0079c531659141344cd1fd0a4f28419497f9722a3daafe3b4186f6b6457e060405160405180910390a3806000806101000a81548173ffffffffffffffffffffffffffffffffffffffff021916908373ffffffffffffffffffffffffffffffffffffffff16021790555050565b6000606080600080600080600060016116068a6117ba565b8154811061161057fe5b90600052602060002090600602019050806000015481600101826002018360030160009054906101000a900460ff1684600401548560050160009054906101000a900460ff168660050160019054906101000a900460000b858054600181600116156101000203166002900480601f0160208091040260200160405190810160405280929190818152602001828054600181600116156101000203166002900480156116fd5780601f106116d2576101008083540402835291602001916116fd565b820191906000526020600020905b8154815290600101906020018083116116e057829003601f168201915b50505050509550848054600181600116156101000203166002900480601f0160208091040260200160405190810160405280929190818152602001828054600181600116156101000203166002900480156117995780601f1061176e57610100808354040283529160200191611799565b820191906000526020600020905b81548152906001019060200180831161177c57829003601f168201915b50505050509450975097509750975097509750975050919395979092949650565b600060016002600084815260200190815260200160002054039050919050565b828054600181600116156101000203166002900490600052602060002090601f016020900481019282601f1061181b57805160ff1916838001178555611849565b82800160010185558215611849579182015b8281111561184857825182559160200191906001019061182d565b5b509050611856919061185a565b5090565b61187c91905b80821115611878576000816000905550600101611860565b5090565b9056fea265627a7a72315820cf4fb91b2fe448dce84f8a8c1cdf00c93237120062bc67c0bef16103d5e4aa9c64736f6c63430005100032",
  "source": "pragma solidity >=0.4.22 <0.9.0;\n\nimport \"./Ownable.sol\";\nimport \"./DateLib.sol\";\n\n\ncontract BoxingOracle is Ownable {\n    Match[] matches; \n    mapping(bytes32 => uint) matchIdToIndex; \n\n    using DateLib for DateLib.DateTime;\n\n    //defines a match along with its outcome\n    struct Match {\n        bytes32 id;             //unique id\n        string name;            //human-friendly name (e.g. Jones vs. Holloway)\n        string participants;    //a delimited string of participant names\n        uint8 participantCount; //number of participants (always 2 for boxing matches!) \n        uint date;              //GMT timestamp of date of contest\n        MatchOutcome outcome;   //the outcome (if decided)\n        int8 winner;            //index of the participant who is the winner\n    }\n\n    //possible match outcomes \n    enum MatchOutcome {\n        Pending,    //match has not been fought to decision\n        Underway,   //match has started & is underway\n        Draw,       //anything other than a clear winner (e.g. cancelled)\n        Decided     //index of participant who is the winner \n    }\n\n\n    /// @notice returns the array index of the match with the given id \n    /// @dev if the match id is invalid, then the return value will be incorrect and may cause error; you must call matchExists(_matchId) first!\n    /// @param _matchId the match id to get\n    /// @return an array index \n\n    function _getMatchIndex(bytes32 _matchId) private view returns (uint) {\n        return matchIdToIndex[_matchId]-1; \n    }\n\n\n    /// @notice determines whether a match exists with the given id \n    /// @param _matchId the match id to test\n    /// @return true if match exists and id is valid\n    function matchExists(bytes32 _matchId) public view returns (bool) {\n        if (matches.length == 0)\n            return false;\n        uint index = matchIdToIndex[_matchId]; \n        return (index > 0); \n    }\n\n    /// @notice sets the outcome of a predefined match, permanently on the blockchain\n    /// @param _matchId unique id of the match to modify\n    /// @param _outcome outcome of the match \n\n    function declareOutcome(bytes32 _matchId, MatchOutcome _outcome, int8 _winner) onlyOwner external {\n        //require that it exists\n        require(matchExists(_matchId)); \n\n        //get the match \n        uint index = _getMatchIndex(_matchId);\n        Match storage theMatch = matches[index]; \n\n        if (_outcome == MatchOutcome.Decided) \n            require(_winner >= 0 && theMatch.participantCount > uint8(_winner)); \n\n        //set the outcome \n        theMatch.outcome = _outcome;\n        \n        //set the winner (if there is one)\n        if (_outcome == MatchOutcome.Decided) \n            theMatch.winner = _winner;\n    }\n\n    /// @notice puts a new pending match into the blockchain \n    /// @param _name descriptive name for the match (e.g. Pac vs. Mayweather 2016)\n    /// @param _participants |-delimited string of participants names (e.g. \"Manny Pac|Floyd May\")\n    /// @param _participantCount number of participants \n    /// @param _date date set for the match \n    /// @return the unique id of the newly created match \n\n    function addMatch(string memory _id, string memory _name, string memory _participants, uint8 _participantCount, uint _date) onlyOwner public returns (bytes32) {\n\n        //hash the crucial info to get a unique id \n        //bytes32 id = keccak256(abi.encodePacked(_name, _participantCount, _date)); \n        //string memory theCode = \"manu_code\";\n\n        bytes32 id = stringToBytes32(_id);\n\n        //require that the match be unique (not already added) \n        require(!matchExists(id));\n        \n        //add the match \n        uint newIndex = matches.push(Match(id, _name, _participants, _participantCount, _date, MatchOutcome.Pending, -1))-1; \n        matchIdToIndex[id] = newIndex+1;\n        \n        //return the unique id of the new match\n        return id;\n    }\n\n    \n\n    /// @notice gets the unique ids of all pending matches, in reverse chronological order\n    /// @return an array of unique match ids\n    function getPendingMatches() public view returns (bytes32[] memory) {\n        uint count = 0; \n\n        //get count of pending matches \n        for (uint i = 0; i < matches.length; i++) {\n            if (matches[i].outcome == MatchOutcome.Pending) \n                count++; \n        }\n\n        //collect up all the pending matches\n        bytes32[] memory output = new bytes32[](count); \n\n        if (count > 0) {\n            uint index = 0;\n            for (uint n = matches.length; n > 0; n--) {\n                if (matches[n-1].outcome == MatchOutcome.Pending) \n                    output[index++] = matches[n-1].id;\n            }\n        } \n\n        return output; \n    }\n\n    /// @notice gets the unique ids of matches, pending and decided, in reverse chronological order\n    /// @return an array of unique match ids\n    function getAllMatches() public view returns (bytes32[] memory) {\n        bytes32[] memory output = new bytes32[](matches.length);\n\n        //get all ids \n        if (matches.length > 0) {\n            uint index = 0;\n            for (uint n = matches.length; n > 0; n--) {\n                output[index++] = matches[n-1].id;\n            }\n        }\n        \n        return output; \n    }\n\n    /// @notice gets the specified match \n    /// @param _matchId the unique id of the desired match \n    /// @return match data of the specified match \n    function getMatch(bytes32 _matchId) public view returns (\n        bytes32 id,\n        string memory name, \n        string memory participants,\n        uint8 participantCount,\n        uint date, \n        MatchOutcome outcome, \n        int8 winner) {\n        \n        //get the match \n        // if (matchExists(_matchId)) {\n        //     Match storage theMatch = matches[_getMatchIndex(_matchId)];\n        //     return (theMatch.id, theMatch.name, theMatch.participants, theMatch.participantCount, theMatch.date, theMatch.outcome, theMatch.winner); \n        // }\n        // else {\n        //     return (_matchId, \"\", \"\", 0, 0, MatchOutcome.Pending, -1); \n        // }\n        Match storage theMatch = matches[_getMatchIndex(_matchId)];\n\n        return (theMatch.id, theMatch.name, theMatch.participants, theMatch.participantCount, theMatch.date, theMatch.outcome, theMatch.winner);\n    }\n\n\n\n    function getTheMatch(string memory _matchId) public view returns (\n        bytes32 id,\n        string memory name, \n        string memory participants,\n        uint8 participantCount,\n        uint date, \n        MatchOutcome outcome, \n        int8 winner) {\n        \n        //get the match \n        // if (matchExists(_matchId)) {\n        //     Match storage theMatch = matches[_getMatchIndex(_matchId)];\n        //     return (theMatch.id, theMatch.name, theMatch.participants, theMatch.participantCount, theMatch.date, theMatch.outcome, theMatch.winner); \n        // }\n        // else {\n        //     return (_matchId, \"\", \"\", 0, 0, MatchOutcome.Pending, -1); \n        // }\n        Match storage theMatch = matches[_getMatchIndex(stringToBytes32(_matchId))];\n\n        return (theMatch.id, theMatch.name, theMatch.participants, theMatch.participantCount, theMatch.date, theMatch.outcome, theMatch.winner);\n    }\n\n\n\n\n    /// @notice gets the most recent match or pending match \n    /// @param _pending if true, will return only the most recent pending match; otherwise, returns the most recent match either pending or completed\n    /// @return match data \n    function getMostRecentMatch(bool _pending) public view returns (\n        bytes32 id,\n        string memory name, \n        string memory participants,\n        uint8 participantCount,\n        uint date, \n        MatchOutcome outcome, \n        int8 winner) {\n\n        bytes32 matchId = 0; \n        bytes32[] memory ids;\n\n        if (_pending) {\n            ids = getPendingMatches(); \n        } else {\n            ids = getAllMatches();\n        }\n        if (ids.length > 0) {\n            matchId = ids[0]; \n        }\n        \n        //by default, return a null match\n        return getMatch(matchId); \n    }\n\n    function testConnection() public pure returns (bool) {\n        return true; \n    }\n\n    function addTestData() external onlyOwner {\n        addMatch(\"manu_code\", \"Pacquiao vs. MayWeather\", \"Pacquiao|Mayweather\", 2, now);\n        // addMatch(\"Macquiao vs. Payweather\", \"Macquiao|Payweather\", 2, DateLib.DateTime(2018, 8, 15, 0, 0, 0, 0, 0).toUnixTimestamp());\n        // addMatch(\"Pacweather vs. Macarthur\", \"Pacweather|Macarthur\", 2, DateLib.DateTime(2018, 9, 3, 0, 0, 0, 0, 0).toUnixTimestamp());\n        // addMatch(\"Macarthur vs. Truman\", \"Macarthur|Truman\", 2, DateLib.DateTime(2018, 9, 3, 0, 0, 0, 0, 0).toUnixTimestamp());\n        // addMatch(\"Macaque vs. Pregunto\", \"Macaque|Pregunto\", 2, DateLib.DateTime(2018, 9, 21, 0, 0, 0, 0, 0).toUnixTimestamp());\n        // addMatch(\"Farsworth vs. Wernstrom\", \"Farsworth|Wernstrom\", 2, DateLib.DateTime(2018, 9, 29, 0, 0, 0, 0, 0).toUnixTimestamp());\n        // addMatch(\"Fortinbras vs. Hamlet\", \"Fortinbras|Hamlet\", 2, DateLib.DateTime(2018, 10, 10, 0, 0, 0, 0, 0).toUnixTimestamp());\n        // addMatch(\"Foolicle vs. Pretendo\", \"Foolicle|Pretendo\", 2, DateLib.DateTime(2018, 11, 11, 0, 0, 0, 0, 0).toUnixTimestamp());\n        // addMatch(\"Parthian vs. Scythian\", \"Parthian|Scythian\", 2, DateLib.DateTime(2018, 11, 12, 0, 0, 0, 0, 0).toUnixTimestamp());\n    }\n\n    \n    function stringToBytes32(string memory source) public pure returns (bytes32 result) {\n        bytes memory tempEmptyStringTest = bytes(source);\n        if (tempEmptyStringTest.length == 0) {\n            return 0x0;\n        }\n\n        assembly {\n            result := mload(add(source, 32))\n        }\n    }\n\n    function bytes32ToStr(bytes32 _bytes32) public pure returns (string memory) {\n\n    // string memory str = string(_bytes32);\n    // TypeError: Explicit type conversion not allowed from \"bytes32\" to \"string storage pointer\"\n    // thus we should fist convert bytes32 to bytes (to dynamically-sized byte array)\n\n        // bytes memory bytesArray = new bytes(32);\n        // for (uint256 i; i < 32; i++) {\n        //     bytesArray[i] = _bytes32[i];\n        // }\n        bytes32 foo = _bytes32;\n        string memory bar = string(abi.encodePacked(foo));\n        return string(bar);\n    }\n\n}\n",
  "sourcePath": "E:/projects/duara/duara_sc_dapp/contracts/BoxingOracle.sol",
  "compiler": {
    "name": "solc",
    "version": "0.5.16+commit.9c3226ce.Emscripten.clang"
  },
  "schemaVersion": "3.4.1",
  "updatedAt": "2021-07-15T03:05:46.434Z",
  "devdoc": {
    "methods": {
      "addMatch(string,string,string,uint8,uint256)": {
        "params": {
          "_date": "date set for the match ",
          "_name": "descriptive name for the match (e.g. Pac vs. Mayweather 2016)",
          "_participantCount": "number of participants ",
          "_participants": "|-delimited string of participants names (e.g. \"Manny Pac|Floyd May\")"
        },
        "return": "the unique id of the newly created match "
      },
      "declareOutcome(bytes32,uint8,int8)": {
        "params": {
          "_matchId": "unique id of the match to modify",
          "_outcome": "outcome of the match "
        }
      },
      "getAllMatches()": {
        "return": "an array of unique match ids"
      },
      "getMatch(bytes32)": {
        "params": {
          "_matchId": "the unique id of the desired match "
        },
        "return": "match data of the specified match "
      },
      "getMostRecentMatch(bool)": {
        "params": {
          "_pending": "if true, will return only the most recent pending match; otherwise, returns the most recent match either pending or completed"
        },
        "return": "match data "
      },
      "getPendingMatches()": {
        "return": "an array of unique match ids"
      },
      "matchExists(bytes32)": {
        "params": {
          "_matchId": "the match id to test"
        },
        "return": "true if match exists and id is valid"
      },
      "transferOwnership(address)": {
        "details": "Allows the current owner to transfer control of the contract to a newOwner.",
        "params": {
          "newOwner": "The address to transfer ownership to."
        }
      }
    }
  },
  "userdoc": {
    "methods": {
      "addMatch(string,string,string,uint8,uint256)": {
        "notice": "puts a new pending match into the blockchain "
      },
      "declareOutcome(bytes32,uint8,int8)": {
        "notice": "sets the outcome of a predefined match, permanently on the blockchain"
      },
      "getAllMatches()": {
        "notice": "gets the unique ids of matches, pending and decided, in reverse chronological order"
      },
      "getMatch(bytes32)": {
        "notice": "gets the specified match "
      },
      "getMostRecentMatch(bool)": {
        "notice": "gets the most recent match or pending match "
      },
      "getPendingMatches()": {
        "notice": "gets the unique ids of all pending matches, in reverse chronological order"
      },
      "matchExists(bytes32)": {
        "notice": "determines whether a match exists with the given id "
      }
    }
  }
}