{
  "contractName": "DemAssets",
  "abi": [
    {
      "inputs": [],
      "payable": false,
      "stateMutability": "nonpayable",
      "type": "constructor"
    },
    {
      "anonymous": false,
      "inputs": [
        {
          "indexed": false,
          "internalType": "bytes32",
          "name": "code",
          "type": "bytes32"
        },
        {
          "indexed": false,
          "internalType": "string",
          "name": "name",
          "type": "string"
        },
        {
          "indexed": false,
          "internalType": "uint256",
          "name": "assetNumber",
          "type": "uint256"
        }
      ],
      "name": "AssetCreated",
      "type": "event"
    },
    {
      "anonymous": false,
      "inputs": [
        {
          "indexed": true,
          "internalType": "address",
          "name": "previousOwner",
          "type": "address"
        },
        {
          "indexed": true,
          "internalType": "address",
          "name": "newOwner",
          "type": "address"
        }
      ],
      "name": "OwnershipTransferred",
      "type": "event"
    },
    {
      "constant": true,
      "inputs": [],
      "name": "assetCode",
      "outputs": [
        {
          "internalType": "bytes32",
          "name": "",
          "type": "bytes32"
        }
      ],
      "payable": false,
      "stateMutability": "view",
      "type": "function"
    },
    {
      "constant": true,
      "inputs": [],
      "name": "assetCount",
      "outputs": [
        {
          "internalType": "uint256",
          "name": "",
          "type": "uint256"
        }
      ],
      "payable": false,
      "stateMutability": "view",
      "type": "function"
    },
    {
      "constant": true,
      "inputs": [
        {
          "internalType": "uint256",
          "name": "",
          "type": "uint256"
        }
      ],
      "name": "assets",
      "outputs": [
        {
          "internalType": "bytes32",
          "name": "code",
          "type": "bytes32"
        },
        {
          "internalType": "string",
          "name": "assetName",
          "type": "string"
        }
      ],
      "payable": false,
      "stateMutability": "view",
      "type": "function"
    },
    {
      "constant": true,
      "inputs": [
        {
          "internalType": "uint256",
          "name": "",
          "type": "uint256"
        }
      ],
      "name": "demAssets",
      "outputs": [
        {
          "internalType": "bytes32",
          "name": "code",
          "type": "bytes32"
        },
        {
          "internalType": "string",
          "name": "assetName",
          "type": "string"
        }
      ],
      "payable": false,
      "stateMutability": "view",
      "type": "function"
    },
    {
      "constant": true,
      "inputs": [],
      "name": "owner",
      "outputs": [
        {
          "internalType": "address",
          "name": "",
          "type": "address"
        }
      ],
      "payable": false,
      "stateMutability": "view",
      "type": "function"
    },
    {
      "constant": false,
      "inputs": [
        {
          "internalType": "address",
          "name": "newOwner",
          "type": "address"
        }
      ],
      "name": "transferOwnership",
      "outputs": [],
      "payable": false,
      "stateMutability": "nonpayable",
      "type": "function"
    },
    {
      "constant": true,
      "inputs": [
        {
          "internalType": "bytes32",
          "name": "_assetCode",
          "type": "bytes32"
        }
      ],
      "name": "_getAssetIndex",
      "outputs": [
        {
          "internalType": "uint256",
          "name": "",
          "type": "uint256"
        }
      ],
      "payable": false,
      "stateMutability": "view",
      "type": "function"
    },
    {
      "constant": false,
      "inputs": [
        {
          "internalType": "string",
          "name": "_code",
          "type": "string"
        },
        {
          "internalType": "string",
          "name": "_assetName",
          "type": "string"
        }
      ],
      "name": "createAsset",
      "outputs": [],
      "payable": false,
      "stateMutability": "nonpayable",
      "type": "function"
    },
    {
      "constant": true,
      "inputs": [
        {
          "internalType": "string",
          "name": "source",
          "type": "string"
        }
      ],
      "name": "stringToBytes32",
      "outputs": [
        {
          "internalType": "bytes32",
          "name": "result",
          "type": "bytes32"
        }
      ],
      "payable": false,
      "stateMutability": "pure",
      "type": "function"
    },
    {
      "constant": true,
      "inputs": [
        {
          "internalType": "bytes32",
          "name": "_bytes32",
          "type": "bytes32"
        }
      ],
      "name": "bytes32ToStr",
      "outputs": [
        {
          "internalType": "string",
          "name": "",
          "type": "string"
        }
      ],
      "payable": false,
      "stateMutability": "pure",
      "type": "function"
    },
    {
      "constant": false,
      "inputs": [],
      "name": "addTestData",
      "outputs": [],
      "payable": false,
      "stateMutability": "nonpayable",
      "type": "function"
    }
  ],
  "bytecode": "0x608060405234801561001057600080fd5b50336000806101000a81548173ffffffffffffffffffffffffffffffffffffffff021916908373ffffffffffffffffffffffffffffffffffffffff1602179055506100956040518060400160405280600981526020017f76696e695f636f6465000000000000000000000000000000000000000000000081525061013060201b60201c565b600581905550604051806040016040528060055481526020016040518060400160405280600481526020017f74657374000000000000000000000000000000000000000000000000000000008152508152506004600080815260200190815260200160002060008201518160000155602082015181600101908051906020019061012092919061015b565b5090505060018081905550610200565b6000606082905060008151141561014d576000801b915050610156565b60208301519150505b919050565b828054600181600116156101000203166002900490600052602060002090601f016020900481019282601f1061019c57805160ff19168380011785556101ca565b828001600101855582156101ca579182015b828111156101c95782518255916020019190600101906101ae565b5b5090506101d791906101db565b5090565b6101fd91905b808211156101f95760008160009055506001016101e1565b5090565b90565b610d2380620002106000396000f3fe608060405234801561001057600080fd5b50600436106100a95760003560e01c8063a2a55b6811610071578063a2a55b6814610210578063cf35bdd014610362578063cfb5192814610410578063eafe7a74146104df578063ef0b2368146104fd578063f2fde38b146105a4576100a9565b80634e841e3e146100ae5780635ed14f23146100cc5780638da5cb5b1461017a5780639a87eaa2146101c4578063a212b45414610206575b600080fd5b6100b66105e8565b6040518082815260200191505060405180910390f35b6100f8600480360360208110156100e257600080fd5b81019080803590602001909291905050506105ee565b6040518083815260200180602001828103825283818151815260200191508051906020019080838360005b8381101561013e578082015181840152602081019050610123565b50505050905090810190601f16801561016b5780820380516001836020036101000a031916815260200191505b50935050505060405180910390f35b6101826106aa565b604051808273ffffffffffffffffffffffffffffffffffffffff1673ffffffffffffffffffffffffffffffffffffffff16815260200191505060405180910390f35b6101f0600480360360208110156101da57600080fd5b81019080803590602001909291905050506106cf565b6040518082815260200191505060405180910390f35b61020e6106ef565b005b6103606004803603604081101561022657600080fd5b810190808035906020019064010000000081111561024357600080fd5b82018360208201111561025557600080fd5b8035906020019184600183028401116401000000008311171561027757600080fd5b91908080601f016020809104026020016040519081016040528093929190818152602001838380828437600081840152601f19601f820116905080830192505050505050509192919290803590602001906401000000008111156102da57600080fd5b8201836020820111156102ec57600080fd5b8035906020019184600183028401116401000000008311171561030e57600080fd5b91908080601f016020809104026020016040519081016040528093929190818152602001838380828437600081840152601f19601f8201169050808301925050505050505091929192905050506107be565b005b61038e6004803603602081101561037857600080fd5b81019080803590602001909291905050506109c9565b6040518083815260200180602001828103825283818151815260200191508051906020019080838360005b838110156103d45780820151818401526020810190506103b9565b50505050905090810190601f1680156104015780820380516001836020036101000a031916815260200191505b50935050505060405180910390f35b6104c96004803603602081101561042657600080fd5b810190808035906020019064010000000081111561044357600080fd5b82018360208201111561045557600080fd5b8035906020019184600183028401116401000000008311171561047757600080fd5b91908080601f016020809104026020016040519081016040528093929190818152602001838380828437600081840152601f19601f820116905080830192505050505050509192919290505050610a92565b6040518082815260200191505060405180910390f35b6104e7610abd565b6040518082815260200191505060405180910390f35b6105296004803603602081101561051357600080fd5b8101908080359060200190929190505050610ac3565b6040518080602001828103825283818151815260200191508051906020019080838360005b8381101561056957808201518184015260208101905061054e565b50505050905090810190601f1680156105965780820380516001836020036101000a031916815260200191505b509250505060405180910390f35b6105e6600480360360208110156105ba57600080fd5b81019080803573ffffffffffffffffffffffffffffffffffffffff169060200190929190505050610af8565b005b60055481565b6004602052806000526040600020600091509050806000015490806001018054600181600116156101000203166002900480601f0160208091040260200160405190810160405280929190818152602001828054600181600116156101000203166002900480156106a05780601f10610675576101008083540402835291602001916106a0565b820191906000526020600020905b81548152906001019060200180831161068357829003601f168201915b5050505050905082565b6000809054906101000a900473ffffffffffffffffffffffffffffffffffffffff1681565b600060016003600084815260200190815260200160002054039050919050565b6000809054906101000a900473ffffffffffffffffffffffffffffffffffffffff1673ffffffffffffffffffffffffffffffffffffffff163373ffffffffffffffffffffffffffffffffffffffff161461074857600080fd5b6107bc6040518060400160405280600981526020017f6d616e755f636f646500000000000000000000000000000000000000000000008152506040518060400160405280600481526020017f6d616e75000000000000000000000000000000000000000000000000000000008152506107be565b565b6000809054906101000a900473ffffffffffffffffffffffffffffffffffffffff1673ffffffffffffffffffffffffffffffffffffffff163373ffffffffffffffffffffffffffffffffffffffff161461081757600080fd5b600061082283610a92565b90506040518060400160405280828152602001838152506004600060016000815480929190600101919050558152602001908152602001600020600082015181600001556020820151816001019080519060200190610882929190610c49565b50905050600060016002604051806040016040528085815260200186815250908060018154018082558091505090600182039060005260206000209060020201600090919290919091506000820151816000015560208201518160010190805190602001906108f2929190610c49565b5050500390506001810160036000848152602001908152602001600020819055507fc36d1f42e0c5bf8a20063c76dce21593a052dc2222d951719ea74daee556eb7a828460018054036040518084815260200180602001838152602001828103825284818151815260200191508051906020019080838360005b8381101561098757808201518184015260208101905061096c565b50505050905090810190601f1680156109b45780820380516001836020036101000a031916815260200191505b5094505050505060405180910390a150505050565b600281815481106109d657fe5b9060005260206000209060020201600091509050806000015490806001018054600181600116156101000203166002900480601f016020809104026020016040519081016040528092919081815260200182805460018160011615610100020316600290048015610a885780601f10610a5d57610100808354040283529160200191610a88565b820191906000526020600020905b815481529060010190602001808311610a6b57829003601f168201915b5050505050905082565b60006060829050600081511415610aaf576000801b915050610ab8565b60208301519150505b919050565b60015481565b606060008290506060816040516020018082815260200191505060405160208183030381529060405290508092505050919050565b6000809054906101000a900473ffffffffffffffffffffffffffffffffffffffff1673ffffffffffffffffffffffffffffffffffffffff163373ffffffffffffffffffffffffffffffffffffffff1614610b5157600080fd5b600073ffffffffffffffffffffffffffffffffffffffff168173ffffffffffffffffffffffffffffffffffffffff161415610b8b57600080fd5b8073ffffffffffffffffffffffffffffffffffffffff166000809054906101000a900473ffffffffffffffffffffffffffffffffffffffff1673ffffffffffffffffffffffffffffffffffffffff167f8be0079c531659141344cd1fd0a4f28419497f9722a3daafe3b4186f6b6457e060405160405180910390a3806000806101000a81548173ffffffffffffffffffffffffffffffffffffffff021916908373ffffffffffffffffffffffffffffffffffffffff16021790555050565b828054600181600116156101000203166002900490600052602060002090601f016020900481019282601f10610c8a57805160ff1916838001178555610cb8565b82800160010185558215610cb8579182015b82811115610cb7578251825591602001919060010190610c9c565b5b509050610cc59190610cc9565b5090565b610ceb91905b80821115610ce7576000816000905550600101610ccf565b5090565b9056fea265627a7a723158206a30e85ce91be00fcd3e0ca10d59d43932e22f4ee56669e2a03f1e79dc4abb1d64736f6c63430005100032",
  "source": "// SPDX-License-Identifier: MIT\npragma solidity >=0.4.22 <0.9.0;\n\nimport \"./Ownable.sol\";\nimport \"./DateLib.sol\";\n\ncontract DemAssets is Ownable {\n    uint256 public assetCount;\n    Asset[] public assets;\n\n    // defines an asset\n    struct Asset {\n        bytes32 code; //unique id (barcode)\n        string assetName;\n    }\n    \n    mapping(bytes32 => uint) assetCodeToIndex; \n    mapping (uint256 => Asset) public demAssets;\n\n    event AssetCreated(bytes32 code, string name, uint256 assetNumber);\n\n    bytes32 public assetCode;\n\n    constructor() public {\n        assetCode = stringToBytes32(\"vini_code\");\n        demAssets[0] = Asset(assetCode, \"test\");\n        //assets.push(Asset(assetCode, \"test_tena\"));\n\t\tassetCount = 1;\n    }\n\n    function _getAssetIndex(bytes32 _assetCode) public view returns (uint) {\n        return assetCodeToIndex[_assetCode]-1; \n    }\n\n    // function getAssetByCode (string memory _assetCode) public view returns (string memory name) {\n    //     string memory theAsset = assets[_assetCode].assetName;\n    //     return theAsset;\n    // }\n\n    function createAsset(string memory _code, string memory _assetName) onlyOwner public {\n\n        bytes32 code = stringToBytes32(_code);\n        demAssets[assetCount++] = Asset(code, _assetName);\n        \n        uint newIndex = assets.push(Asset(code, _assetName))-1;\n        assetCodeToIndex[code] = newIndex+1;\n\n        emit AssetCreated(code, _assetName, assetCount - 1);\n    }\n\n    function stringToBytes32(string memory source) public pure returns (bytes32 result) {\n        bytes memory tempEmptyStringTest = bytes(source);\n        if (tempEmptyStringTest.length == 0) {\n            return 0x0;\n        }\n\n        assembly {\n            result := mload(add(source, 32))\n        }\n    }\n\n    function bytes32ToStr(bytes32 _bytes32) public pure returns (string memory) {\n        bytes32 theString = _bytes32;\n        string memory res = string(abi.encodePacked(theString));\n        return string(res);\n    }\n\n    function addTestData() external onlyOwner {\n        createAsset(\"manu_code\", \"manu\");\n    }\n}\n\n\n\n\n\n\n\n\n\n\n\n\n\n\n\n\n\n\n\n\n\n\n\n\n\n",
  "sourcePath": "F:/projects/duara/duara_sc_dapp/contracts/DemAssets.sol",
  "compiler": {
    "name": "solc",
    "version": "0.5.16+commit.9c3226ce.Emscripten.clang"
  },
  "schemaVersion": "3.4.1",
  "updatedAt": "2021-07-06T23:34:50.681Z",
  "devdoc": {
    "methods": {
      "transferOwnership(address)": {
        "details": "Allows the current owner to transfer control of the contract to a newOwner.",
        "params": {
          "newOwner": "The address to transfer ownership to."
        }
      }
    }
  },
  "userdoc": {
    "methods": {}
  }
}