{
  "contractName": "ProjectFunding",
  "abi": [
    {
      "constant": true,
      "inputs": [
        {
          "internalType": "uint256",
          "name": "",
          "type": "uint256"
        }
      ],
      "name": "people",
      "outputs": [
        {
          "internalType": "string",
          "name": "name",
          "type": "string"
        },
        {
          "internalType": "uint256",
          "name": "funds",
          "type": "uint256"
        }
      ],
      "payable": false,
      "stateMutability": "view",
      "type": "function"
    },
    {
      "constant": false,
      "inputs": [
        {
          "internalType": "string",
          "name": "_name",
          "type": "string"
        },
        {
          "internalType": "uint256",
          "name": "_funds",
          "type": "uint256"
        }
      ],
      "name": "addPerson",
      "outputs": [],
      "payable": false,
      "stateMutability": "nonpayable",
      "type": "function"
    },
    {
      "constant": true,
      "inputs": [
        {
          "internalType": "string",
          "name": "_name",
          "type": "string"
        }
      ],
      "name": "getPersonByName",
      "outputs": [
        {
          "internalType": "uint256",
          "name": "",
          "type": "uint256"
        }
      ],
      "payable": false,
      "stateMutability": "view",
      "type": "function"
    },
    {
      "constant": false,
      "inputs": [],
      "name": "addTestData",
      "outputs": [],
      "payable": false,
      "stateMutability": "nonpayable",
      "type": "function"
    }
  ],
  "bytecode": "0x608060405234801561001057600080fd5b50610654806100206000396000f3fe608060405234801561001057600080fd5b506004361061004c5760003560e01c80631da6eab2146100515780636f760f41146101205780639e7a13ad146101e5578063a212b45414610293575b600080fd5b61010a6004803603602081101561006757600080fd5b810190808035906020019064010000000081111561008457600080fd5b82018360208201111561009657600080fd5b803590602001918460018302840111640100000000831117156100b857600080fd5b91908080601f016020809104026020016040519081016040528093929190818152602001838380828437600081840152601f19601f82011690508083019250505050505050919291929050505061029d565b6040518082815260200191505060405180910390f35b6101e36004803603604081101561013657600080fd5b810190808035906020019064010000000081111561015357600080fd5b82018360208201111561016557600080fd5b8035906020019184600183028401116401000000008311171561018757600080fd5b91908080601f016020809104026020016040519081016040528093929190818152602001838380828437600081840152601f19601f82011690508083019250505050505050919291929080359060200190929190505050610310565b005b610211600480360360208110156101fb57600080fd5b81019080803590602001909291905050506103df565b6040518080602001838152602001828103825284818151815260200191508051906020019080838360005b8381101561025757808201518184015260208101905061023c565b50505050905090810190601f1680156102845780820380516001836020036101000a031916815260200191505b50935050505060405180910390f35b61029b61049b565b005b60006001826040518082805190602001908083835b602083106102d557805182526020820191506020810190506020830392506102b2565b6001836020036101000a0380198251168184511680821785525050505050509050019150509081526020016040518091039020549050919050565b610318610560565b604051806040016040528084815260200183815250905080600080848152602001908152602001600020600082015181600001908051906020019061035e92919061057a565b5060208201518160010155905050816001846040518082805190602001908083835b602083106103a35780518252602082019150602081019050602083039250610380565b6001836020036101000a038019825116818451168082178552505050505050905001915050908152602001604051809103902081905550505050565b6000602052806000526040600020600091509050806000018054600181600116156101000203166002900480601f01602080910402602001604051908101604052809291908181526020018280546001816001161561010002031660029004801561048b5780601f106104605761010080835404028352916020019161048b565b820191906000526020600020905b81548152906001019060200180831161046e57829003601f168201915b5050505050908060010154905082565b6104dc6040518060400160405280600981526020017fc38b6d6d616e75656c0000000000000000000000000000000000000000000000815250614e20610310565b61051d6040518060400160405280600581526020017f42696c6c79000000000000000000000000000000000000000000000000000000815250617530610310565b61055e6040518060400160405280600781526020017fc38b7567656e6500000000000000000000000000000000000000000000000000815250619c40610310565b565b604051806040016040528060608152602001600081525090565b828054600181600116156101000203166002900490600052602060002090601f016020900481019282601f106105bb57805160ff19168380011785556105e9565b828001600101855582156105e9579182015b828111156105e85782518255916020019190600101906105cd565b5b5090506105f691906105fa565b5090565b61061c91905b80821115610618576000816000905550600101610600565b5090565b9056fea265627a7a7231582046baea7ab6df897356e22bf84b433e5d1bb9a1531f9a53cf0d6a5827a5dce63464736f6c63430005100032",
  "source": "// SPDX-License-Identifier: MIT\r\npragma solidity >=0.4.22 <0.9.0;\r\n\r\ncontract ProjectFunding\r\n{\r\n    struct Person {\r\n        string name;\r\n        uint256 funds;\r\n    }\r\n\r\n    // this is the mapping for which we want the compiler to automatically generate a getter.\r\n    mapping(uint256 => Person) public people;\r\n\r\n    mapping(string => uint256) getFundsFromName;\r\n\r\n    function addPerson (string memory _name, uint256 _funds) public {\r\n        Person memory newPerson = Person(_name, _funds);\r\n        people[_funds] = newPerson;\r\n        getFundsFromName[_name] = _funds;\r\n    }\r\n\r\n    function getPersonByName(string memory _name) public view returns(uint256){\r\n        return getFundsFromName[_name];\r\n    }\r\n\r\n    function addTestData () public {\r\n        addPerson(\"Ëmmanuel\", 20000);\r\n        addPerson(\"Billy\", 30000);\r\n        addPerson(\"Ëugene\", 40000);\r\n    }\r\n}\r\n",
  "sourcePath": "E:/projects/duara/duara_sc_dapp/contracts/ProjectFunding.sol",
  "compiler": {
    "name": "solc",
    "version": "0.5.16+commit.9c3226ce.Emscripten.clang"
  },
  "schemaVersion": "3.4.1",
  "updatedAt": "2021-07-15T03:05:47.174Z",
  "devdoc": {
    "methods": {}
  },
  "userdoc": {
    "methods": {}
  }
}