{
  "contractName": "Project",
  "abi": [
    {
      "constant": true,
      "inputs": [
        {
          "internalType": "address",
          "name": "",
          "type": "address"
        }
      ],
      "name": "people",
      "outputs": [
        {
          "internalType": "string",
          "name": "name",
          "type": "string"
        },
        {
          "internalType": "uint256",
          "name": "funds",
          "type": "uint256"
        }
      ],
      "payable": false,
      "stateMutability": "view",
      "type": "function"
    },
    {
      "constant": false,
      "inputs": [
        {
          "internalType": "string",
          "name": "_name",
          "type": "string"
        },
        {
          "internalType": "uint256",
          "name": "_funds",
          "type": "uint256"
        }
      ],
      "name": "addPerson",
      "outputs": [],
      "payable": false,
      "stateMutability": "nonpayable",
      "type": "function"
    },
    {
      "constant": true,
      "inputs": [
        {
          "internalType": "string",
          "name": "_name",
          "type": "string"
        }
      ],
      "name": "getPersonByName",
      "outputs": [
        {
          "internalType": "address",
          "name": "",
          "type": "address"
        }
      ],
      "payable": false,
      "stateMutability": "view",
      "type": "function"
    },
    {
      "constant": false,
      "inputs": [],
      "name": "addTestData",
      "outputs": [],
      "payable": false,
      "stateMutability": "nonpayable",
      "type": "function"
    }
  ],
  "bytecode": "0x608060405234801561001057600080fd5b5061071c806100206000396000f3fe608060405234801561001057600080fd5b506004361061004c5760003560e01c806307de9735146100515780631da6eab2146101155780636f760f4114610210578063a212b454146102d5575b600080fd5b6100936004803603602081101561006757600080fd5b81019080803573ffffffffffffffffffffffffffffffffffffffff1690602001909291905050506102df565b6040518080602001838152602001828103825284818151815260200191508051906020019080838360005b838110156100d95780820151818401526020810190506100be565b50505050905090810190601f1680156101065780820380516001836020036101000a031916815260200191505b50935050505060405180910390f35b6101ce6004803603602081101561012b57600080fd5b810190808035906020019064010000000081111561014857600080fd5b82018360208201111561015a57600080fd5b8035906020019184600183028401116401000000008311171561017c57600080fd5b91908080601f016020809104026020016040519081016040528093929190818152602001838380828437600081840152601f19601f82011690508083019250505050505050919291929050505061039b565b604051808273ffffffffffffffffffffffffffffffffffffffff1673ffffffffffffffffffffffffffffffffffffffff16815260200191505060405180910390f35b6102d36004803603604081101561022657600080fd5b810190808035906020019064010000000081111561024357600080fd5b82018360208201111561025557600080fd5b8035906020019184600183028401116401000000008311171561027757600080fd5b91908080601f016020809104026020016040519081016040528093929190818152602001838380828437600081840152601f19601f8201169050808301925050505050505091929192908035906020019092919050505061042e565b005b6102dd610563565b005b6000602052806000526040600020600091509050806000018054600181600116156101000203166002900480601f01602080910402602001604051908101604052809291908181526020018280546001816001161561010002031660029004801561038b5780601f106103605761010080835404028352916020019161038b565b820191906000526020600020905b81548152906001019060200180831161036e57829003601f168201915b5050505050908060010154905082565b60006001826040518082805190602001908083835b602083106103d357805182526020820191506020810190506020830392506103b0565b6001836020036101000a038019825116818451168082178552505050505050905001915050908152602001604051809103902060009054906101000a900473ffffffffffffffffffffffffffffffffffffffff169050919050565b610436610628565b6040518060400160405280848152602001838152509050806000803373ffffffffffffffffffffffffffffffffffffffff1673ffffffffffffffffffffffffffffffffffffffff16815260200190815260200160002060008201518160000190805190602001906104a8929190610642565b5060208201518160010155905050336001846040518082805190602001908083835b602083106104ed57805182526020820191506020810190506020830392506104ca565b6001836020036101000a038019825116818451168082178552505050505050905001915050908152602001604051809103902060006101000a81548173ffffffffffffffffffffffffffffffffffffffff021916908373ffffffffffffffffffffffffffffffffffffffff160217905550505050565b6105a46040518060400160405280600981526020017fc38b6d6d616e75656c0000000000000000000000000000000000000000000000815250614e2061042e565b6105e56040518060400160405280600581526020017f42696c6c7900000000000000000000000000000000000000000000000000000081525061753061042e565b6106266040518060400160405280600781526020017fc38b7567656e6500000000000000000000000000000000000000000000000000815250619c4061042e565b565b604051806040016040528060608152602001600081525090565b828054600181600116156101000203166002900490600052602060002090601f016020900481019282601f1061068357805160ff19168380011785556106b1565b828001600101855582156106b1579182015b828111156106b0578251825591602001919060010190610695565b5b5090506106be91906106c2565b5090565b6106e491905b808211156106e05760008160009055506001016106c8565b5090565b9056fea265627a7a7231582027ca0a03e5d6117e357a7e9b4f758c4831aad09dd94b2ade3ad7c9a367b73f2364736f6c63430005100032",
  "source": "// SPDX-License-Identifier: MIT\r\npragma solidity >=0.4.22 <0.9.0;\r\n\r\ncontract Project\r\n{\r\n    struct Person {\r\n        string name;\r\n        uint funds;\r\n    }\r\n\r\n    // this is the mapping for which we want the compiler to automatically generate a getter.\r\n    mapping(address => Person) public people;\r\n\r\n    mapping(string => address) getAddressFromName;\r\n\r\n    function addPerson (string memory _name, uint _funds) public {\r\n        Person memory newPerson = Person(_name, _funds);\r\n        people[msg.sender] = newPerson;\r\n        getAddressFromName[_name] = msg.sender;\r\n    }\r\n\r\n    function getPersonByName(string memory _name) public view returns(address){\r\n        return getAddressFromName[_name];\r\n    }\r\n\r\n    function addTestData () public {\r\n        addPerson(\"Ëmmanuel\", 20000);\r\n        addPerson(\"Billy\", 30000);\r\n        addPerson(\"Ëugene\", 40000);\r\n    }\r\n}\r\n",
  "sourcePath": "F:/projects/duara/duara_sc_dapp/contracts/Project.sol",
  "compiler": {
    "name": "solc",
    "version": "0.5.16+commit.9c3226ce.Emscripten.clang"
  },
  "schemaVersion": "3.4.1",
  "updatedAt": "2021-07-07T06:30:42.563Z",
  "networkType": "ethereum",
  "devdoc": {
    "methods": {}
  },
  "userdoc": {
    "methods": {}
  }
}