{
  "contractName": "UserCrud",
  "abi": [
    {
      "anonymous": false,
      "inputs": [
        {
          "indexed": true,
          "internalType": "address",
          "name": "userAddress",
          "type": "address"
        },
        {
          "indexed": false,
          "internalType": "uint256",
          "name": "index",
          "type": "uint256"
        }
      ],
      "name": "LogDeleteUser",
      "type": "event"
    },
    {
      "anonymous": false,
      "inputs": [
        {
          "indexed": true,
          "internalType": "address",
          "name": "userAddress",
          "type": "address"
        },
        {
          "indexed": false,
          "internalType": "uint256",
          "name": "index",
          "type": "uint256"
        },
        {
          "indexed": false,
          "internalType": "string",
          "name": "userEmail",
          "type": "string"
        },
        {
          "indexed": false,
          "internalType": "uint256",
          "name": "userAge",
          "type": "uint256"
        }
      ],
      "name": "LogNewUser",
      "type": "event"
    },
    {
      "anonymous": false,
      "inputs": [
        {
          "indexed": true,
          "internalType": "address",
          "name": "userAddress",
          "type": "address"
        },
        {
          "indexed": false,
          "internalType": "uint256",
          "name": "index",
          "type": "uint256"
        },
        {
          "indexed": false,
          "internalType": "string",
          "name": "userEmail",
          "type": "string"
        },
        {
          "indexed": false,
          "internalType": "uint256",
          "name": "userAge",
          "type": "uint256"
        }
      ],
      "name": "LogUpdateUser",
      "type": "event"
    },
    {
      "constant": true,
      "inputs": [
        {
          "internalType": "address",
          "name": "userAddress",
          "type": "address"
        }
      ],
      "name": "isUser",
      "outputs": [
        {
          "internalType": "bool",
          "name": "isIndeed",
          "type": "bool"
        }
      ],
      "payable": false,
      "stateMutability": "view",
      "type": "function"
    },
    {
      "constant": false,
      "inputs": [
        {
          "internalType": "address",
          "name": "userAddress",
          "type": "address"
        },
        {
          "internalType": "string",
          "name": "userEmail",
          "type": "string"
        },
        {
          "internalType": "uint256",
          "name": "userAge",
          "type": "uint256"
        }
      ],
      "name": "insertUser",
      "outputs": [
        {
          "internalType": "uint256",
          "name": "index",
          "type": "uint256"
        }
      ],
      "payable": false,
      "stateMutability": "nonpayable",
      "type": "function"
    },
    {
      "constant": false,
      "inputs": [
        {
          "internalType": "address",
          "name": "userAddress",
          "type": "address"
        }
      ],
      "name": "deleteUser",
      "outputs": [
        {
          "internalType": "uint256",
          "name": "index",
          "type": "uint256"
        }
      ],
      "payable": false,
      "stateMutability": "nonpayable",
      "type": "function"
    },
    {
      "constant": true,
      "inputs": [
        {
          "internalType": "address",
          "name": "userAddress",
          "type": "address"
        }
      ],
      "name": "getUser",
      "outputs": [
        {
          "internalType": "string",
          "name": "userEmail",
          "type": "string"
        },
        {
          "internalType": "uint256",
          "name": "userAge",
          "type": "uint256"
        },
        {
          "internalType": "uint256",
          "name": "index",
          "type": "uint256"
        }
      ],
      "payable": false,
      "stateMutability": "view",
      "type": "function"
    },
    {
      "constant": false,
      "inputs": [
        {
          "internalType": "address",
          "name": "userAddress",
          "type": "address"
        },
        {
          "internalType": "string",
          "name": "userEmail",
          "type": "string"
        }
      ],
      "name": "updateUserEmail",
      "outputs": [
        {
          "internalType": "bool",
          "name": "success",
          "type": "bool"
        }
      ],
      "payable": false,
      "stateMutability": "nonpayable",
      "type": "function"
    },
    {
      "constant": false,
      "inputs": [
        {
          "internalType": "address",
          "name": "userAddress",
          "type": "address"
        },
        {
          "internalType": "uint256",
          "name": "userAge",
          "type": "uint256"
        }
      ],
      "name": "updateUserAge",
      "outputs": [
        {
          "internalType": "bool",
          "name": "success",
          "type": "bool"
        }
      ],
      "payable": false,
      "stateMutability": "nonpayable",
      "type": "function"
    },
    {
      "constant": true,
      "inputs": [],
      "name": "getUserCount",
      "outputs": [
        {
          "internalType": "uint256",
          "name": "count",
          "type": "uint256"
        }
      ],
      "payable": false,
      "stateMutability": "view",
      "type": "function"
    },
    {
      "constant": true,
      "inputs": [
        {
          "internalType": "uint256",
          "name": "index",
          "type": "uint256"
        }
      ],
      "name": "getUserAtIndex",
      "outputs": [
        {
          "internalType": "address",
          "name": "userAddress",
          "type": "address"
        }
      ],
      "payable": false,
      "stateMutability": "view",
      "type": "function"
    }
  ],
  "bytecode": "0x608060405234801561001057600080fd5b50611181806100206000396000f3fe608060405234801561001057600080fd5b50600436106100885760003560e01c806364319ae61161005b57806364319ae6146102a05780636f77926b14610393578063b5cb15f71461045e578063ffcc7bbf1461047c57610088565b80632e071db31461008d5780634209fff1146100f357806352b1e14a1461014f5780635c60f22614610248575b600080fd5b6100d9600480360360408110156100a357600080fd5b81019080803573ffffffffffffffffffffffffffffffffffffffff169060200190929190803590602001909291905050506104ea565b604051808215151515815260200191505060405180910390f35b6101356004803603602081101561010957600080fd5b81019080803573ffffffffffffffffffffffffffffffffffffffff1690602001909291905050506106af565b604051808215151515815260200191505060405180910390f35b6102326004803603606081101561016557600080fd5b81019080803573ffffffffffffffffffffffffffffffffffffffff169060200190929190803590602001906401000000008111156101a257600080fd5b8201836020820111156101b457600080fd5b803590602001918460018302840111640100000000831117156101d657600080fd5b91908080601f016020809104026020016040519081016040528093929190818152602001838380828437600081840152601f19601f82011690508083019250505050505050919291929080359060200190929190505050610776565b6040518082815260200191505060405180910390f35b61028a6004803603602081101561025e57600080fd5b81019080803573ffffffffffffffffffffffffffffffffffffffff1690602001909291905050506109e8565b6040518082815260200191505060405180910390f35b610379600480360360408110156102b657600080fd5b81019080803573ffffffffffffffffffffffffffffffffffffffff169060200190929190803590602001906401000000008111156102f357600080fd5b82018360208201111561030557600080fd5b8035906020019184600183028401116401000000008311171561032757600080fd5b91908080601f016020809104026020016040519081016040528093929190818152602001838380828437600081840152601f19601f820116905080830192505050505050509192919290505050610cef565b604051808215151515815260200191505060405180910390f35b6103d5600480360360208110156103a957600080fd5b81019080803573ffffffffffffffffffffffffffffffffffffffff169060200190929190505050610ea8565b6040518080602001848152602001838152602001828103825285818151815260200191508051906020019080838360005b83811015610421578082015181840152602081019050610406565b50505050905090810190601f16801561044e5780820380516001836020036101000a031916815260200191505b5094505050505060405180910390f35b61046661102d565b6040518082815260200191505060405180910390f35b6104a86004803603602081101561049257600080fd5b810190808035906020019092919050505061103a565b604051808273ffffffffffffffffffffffffffffffffffffffff1673ffffffffffffffffffffffffffffffffffffffff16815260200191505060405180910390f35b60006104f5836106af565b6104fe57600080fd5b816000808573ffffffffffffffffffffffffffffffffffffffff1673ffffffffffffffffffffffffffffffffffffffff168152602001908152602001600020600101819055508273ffffffffffffffffffffffffffffffffffffffff167fe0d03264c4e763e1dd9a479aefbd0cb19a8a9045c5629e6fe975e20310cf04b26000808673ffffffffffffffffffffffffffffffffffffffff1673ffffffffffffffffffffffffffffffffffffffff168152602001908152602001600020600201546000808773ffffffffffffffffffffffffffffffffffffffff1673ffffffffffffffffffffffffffffffffffffffff1681526020019081526020016000206000018560405180848152602001806020018381526020018281038252848181546001816001161561010002031660029004815260200191508054600181600116156101000203166002900480156106955780601f1061066a57610100808354040283529160200191610695565b820191906000526020600020905b81548152906001019060200180831161067857829003601f168201915b505094505050505060405180910390a26001905092915050565b60008060018054905014156106c75760009050610771565b8173ffffffffffffffffffffffffffffffffffffffff1660016000808573ffffffffffffffffffffffffffffffffffffffff1673ffffffffffffffffffffffffffffffffffffffff168152602001908152602001600020600201548154811061072c57fe5b9060005260206000200160009054906101000a900473ffffffffffffffffffffffffffffffffffffffff1673ffffffffffffffffffffffffffffffffffffffff161490505b919050565b6000610781846106af565b1561078b57600080fd5b826000808673ffffffffffffffffffffffffffffffffffffffff1673ffffffffffffffffffffffffffffffffffffffff16815260200190815260200160002060000190805190602001906107e092919061107b565b50816000808673ffffffffffffffffffffffffffffffffffffffff1673ffffffffffffffffffffffffffffffffffffffff168152602001908152602001600020600101819055506001808590806001815401808255809150509060018203906000526020600020016000909192909190916101000a81548173ffffffffffffffffffffffffffffffffffffffff021916908373ffffffffffffffffffffffffffffffffffffffff160217905550036000808673ffffffffffffffffffffffffffffffffffffffff1673ffffffffffffffffffffffffffffffffffffffff168152602001908152602001600020600201819055508373ffffffffffffffffffffffffffffffffffffffff167fd6fc9f7fcab9bfd8225c731fcdf3691c6e742993eeea0025153641c63e8f02826000808773ffffffffffffffffffffffffffffffffffffffff1673ffffffffffffffffffffffffffffffffffffffff1681526020019081526020016000206002015485856040518084815260200180602001838152602001828103825284818151815260200191508051906020019080838360005b8381101561099b578082015181840152602081019050610980565b50505050905090810190601f1680156109c85780820380516001836020036101000a031916815260200191505b5094505050505060405180910390a2600180805490500390509392505050565b60006109f3826106af565b6109fc57600080fd5b60008060008473ffffffffffffffffffffffffffffffffffffffff1673ffffffffffffffffffffffffffffffffffffffff168152602001908152602001600020600201549050600060018080805490500381548110610a5757fe5b9060005260206000200160009054906101000a900473ffffffffffffffffffffffffffffffffffffffff1690508060018381548110610a9257fe5b9060005260206000200160006101000a81548173ffffffffffffffffffffffffffffffffffffffff021916908373ffffffffffffffffffffffffffffffffffffffff160217905550816000808373ffffffffffffffffffffffffffffffffffffffff1673ffffffffffffffffffffffffffffffffffffffff168152602001908152602001600020600201819055506001805480919060019003610b3591906110fb565b508373ffffffffffffffffffffffffffffffffffffffff167f9a67af531bfbfd34f63109e83cfab08e30f92a1827d5c3f50e8fa815469ff9f2836040518082815260200191505060405180910390a28073ffffffffffffffffffffffffffffffffffffffff167fe0d03264c4e763e1dd9a479aefbd0cb19a8a9045c5629e6fe975e20310cf04b2836000808573ffffffffffffffffffffffffffffffffffffffff1673ffffffffffffffffffffffffffffffffffffffff1681526020019081526020016000206000016000808673ffffffffffffffffffffffffffffffffffffffff1673ffffffffffffffffffffffffffffffffffffffff168152602001908152602001600020600101546040518084815260200180602001838152602001828103825284818154600181600116156101000203166002900481526020019150805460018160011615610100020316600290048015610cd55780601f10610caa57610100808354040283529160200191610cd5565b820191906000526020600020905b815481529060010190602001808311610cb857829003601f168201915b505094505050505060405180910390a28192505050919050565b6000610cfa836106af565b610d0357600080fd5b816000808573ffffffffffffffffffffffffffffffffffffffff1673ffffffffffffffffffffffffffffffffffffffff1681526020019081526020016000206000019080519060200190610d5892919061107b565b508273ffffffffffffffffffffffffffffffffffffffff167fe0d03264c4e763e1dd9a479aefbd0cb19a8a9045c5629e6fe975e20310cf04b26000808673ffffffffffffffffffffffffffffffffffffffff1673ffffffffffffffffffffffffffffffffffffffff16815260200190815260200160002060020154846000808873ffffffffffffffffffffffffffffffffffffffff1673ffffffffffffffffffffffffffffffffffffffff168152602001908152602001600020600101546040518084815260200180602001838152602001828103825284818151815260200191508051906020019080838360005b83811015610e62578082015181840152602081019050610e47565b50505050905090810190601f168015610e8f5780820380516001836020036101000a031916815260200191505b5094505050505060405180910390a26001905092915050565b6060600080610eb6846106af565b610ebf57600080fd5b6000808573ffffffffffffffffffffffffffffffffffffffff1673ffffffffffffffffffffffffffffffffffffffff1681526020019081526020016000206000016000808673ffffffffffffffffffffffffffffffffffffffff1673ffffffffffffffffffffffffffffffffffffffff168152602001908152602001600020600101546000808773ffffffffffffffffffffffffffffffffffffffff1673ffffffffffffffffffffffffffffffffffffffff16815260200190815260200160002060020154828054600181600116156101000203166002900480601f0160208091040260200160405190810160405280929190818152602001828054600181600116156101000203166002900480156110195780601f10610fee57610100808354040283529160200191611019565b820191906000526020600020905b815481529060010190602001808311610ffc57829003601f168201915b505050505092509250925092509193909250565b6000600180549050905090565b60006001828154811061104957fe5b9060005260206000200160009054906101000a900473ffffffffffffffffffffffffffffffffffffffff169050919050565b828054600181600116156101000203166002900490600052602060002090601f016020900481019282601f106110bc57805160ff19168380011785556110ea565b828001600101855582156110ea579182015b828111156110e95782518255916020019190600101906110ce565b5b5090506110f79190611127565b5090565b815481835581811115611122578183600052602060002091820191016111219190611127565b5b505050565b61114991905b8082111561114557600081600090555060010161112d565b5090565b9056fea265627a7a723158202700c0b399ce182be3b09f896ab0c0ff76e7ff59590c5232099fd3e03611717564736f6c63430005100032",
  "source": "pragma solidity >=0.4.22 <0.9.0;\r\n\r\n\r\ncontract UserCrud {\r\n\r\n    struct UserStruct {\r\n        string userEmail;\r\n        uint userAge;\r\n        uint index;\r\n    }\r\n  \r\n    mapping(address => UserStruct) private userStructs;\r\n    address[] private userIndex;\r\n\r\n    event LogNewUser(address indexed userAddress, uint index, string userEmail, uint userAge);\r\n    event LogUpdateUser(address indexed userAddress, uint index, string userEmail, uint userAge);\r\n    event LogDeleteUser(address indexed userAddress, uint index);\r\n  \r\n    function isUser(address userAddress) public view returns(bool isIndeed) {\r\n        if (userIndex.length == 0) return false;\r\n        return (userIndex[userStructs[userAddress].index] == userAddress);\r\n    }\r\n\r\n    function insertUser(address userAddress, string memory userEmail, uint userAge) public returns(uint index) {\r\n        if (isUser(userAddress)) revert();\r\n\r\n        userStructs[userAddress].userEmail = userEmail;\r\n        userStructs[userAddress].userAge = userAge;\r\n        userStructs[userAddress].index = userIndex.push(userAddress)-1;\r\n        \r\n        emit LogNewUser (userAddress, userStructs[userAddress].index, userEmail, userAge);\r\n        return userIndex.length-1;\r\n    }\r\n\r\n    function deleteUser(address userAddress) public returns(uint index) {\r\n        if (!isUser(userAddress)) revert(); \r\n        uint rowToDelete = userStructs[userAddress].index;\r\n        address keyToMove = userIndex[userIndex.length-1];\r\n        userIndex[rowToDelete] = keyToMove;\r\n        userStructs[keyToMove].index = rowToDelete; \r\n        userIndex.length--;\r\n        emit LogDeleteUser (userAddress, rowToDelete);\r\n        emit LogUpdateUser (keyToMove, rowToDelete, userStructs[keyToMove].userEmail, userStructs[keyToMove].userAge);\r\n        return rowToDelete;\r\n    }\r\n  \r\n    function getUser(address userAddress) public view returns(string memory userEmail, uint userAge, uint index) {\r\n        if (!isUser(userAddress)) revert (); \r\n        return(\r\n            userStructs[userAddress].userEmail, \r\n            userStructs[userAddress].userAge, \r\n            userStructs[userAddress].index);\r\n    } \r\n  \r\n    function updateUserEmail(address userAddress, string memory userEmail) public returns(bool success) {\r\n        if (!isUser(userAddress)) revert(); \r\n        userStructs[userAddress].userEmail = userEmail;\r\n        emit LogUpdateUser(userAddress, userStructs[userAddress].index, userEmail, \r\n            userStructs[userAddress].userAge);\r\n        return true;\r\n    }\r\n  \r\n    function updateUserAge(address userAddress, uint userAge) public returns(bool success) {\r\n        if (!isUser(userAddress)) revert(); \r\n        userStructs[userAddress].userAge = userAge;\r\n        emit LogUpdateUser (userAddress, userStructs[userAddress].index, userStructs[userAddress].userEmail, userAge);\r\n        return true;\r\n    }\r\n\r\n    function getUserCount() public view returns(uint count) {\r\n        return userIndex.length;\r\n    }\r\n\r\n    function getUserAtIndex(uint index) public view returns(address userAddress) {\r\n        return userIndex[index];\r\n    }\r\n\r\n}\r\n",
  "sourcePath": "F:/projects/duara/duara_sc_dapp/contracts/UserCrud.sol",
  "compiler": {
    "name": "solc",
    "version": "0.5.16+commit.9c3226ce.Emscripten.clang"
  },
  "schemaVersion": "3.4.1",
  "updatedAt": "2021-06-27T21:45:47.990Z",
  "devdoc": {
    "methods": {}
  },
  "userdoc": {
    "methods": {}
  }
}